:100000000C942A000C9447000C9447000C94470071
:100010000C9447000C9447000C9447000C94470044
:100020000C9447000C9447000C9447000C94470034
:100030000C9447000C9447000C9447000C94470024
:100040000C9447000C9447000C9447000C94470014
:100050000C94470011241FBECFE5D8E0DEBFCDBF12
:1000600011E0A0E6B0E0ECE1FEE202C005900D92E6
:10007000A23AB107D9F711E0A2EAB1E001C01D929E
:10008000A43AB107E1F70E94BC110C940C170C9430
:100090000000EF92FF920F931F937B018C0120E0F1
:1000A00030E040E05FE40E94490388238CF0C801FF
:1000B000B70120E030E040E05FE40E94C1010E940F
:1000C000A9039B01AC01205030404040504806C07D
:1000D000C801B7010E94A9039B01AC01B901CA0183
:1000E0001F910F91FF90EF900895A0E0B0E0EBE733
:1000F000F0E00C94D516DC012B01FA019C919230B2
:1001000008F439C1EB018881823008F433C194309E
:1001100069F4843009F02FC111969C91119789815F
:10012000981709F428C1A1E8B1E025C1843009F489
:1001300021C18230A9F4923009F01DC19A01AD01AC
:1001400088E0EA010990AE01E90109929E0181501F
:10015000C1F7E201898111969C918923818308C1AD
:10016000923009F407C112962D903C901397EB0141
:100170008A819B811496AD90BD90CD90DC901797AD
:10018000EC80FD800E811F819101281B390BB90184
:1001900037FF04C066277727621B730B6032710537
:1001A0000CF061C0121613066CF537014801062EDB
:1001B00004C096948794779467940A94D2F721E0C8
:1001C00030E040E050E004C0220F331F441F551FB1
:1001D0006A95D2F721503040404050402E213F21B7
:1001E00040235123211531054105510521F021E01E
:1001F00030E040E050E079018A01E628F72808293C
:1002000019293CC0232BD1F1260E371E350146019A
:10021000062E04C096948794779467940A94D2F734
:1002200021E030E040E050E004C0220F331F441FC3
:10023000551F6A95D2F721503040404050402A2146
:100240003B214C215D21211531054105510521F04E
:1002500021E030E040E050E059016A01A628B728CB
:10026000C828D9280BC0821593052CF01C01AA249C
:10027000BB24650103C0EE24FF24870111969C91E5
:10028000D20111968C91981709F445C0992339F041
:10029000A80197012A193B094C095D0906C0A6016E
:1002A00095012E193F09400B510B57FD08C01182D3
:1002B0003382228224833583468357831DC081E0A5
:1002C00081833382228288279927DC01821B930B4A
:1002D000A40BB50B84839583A683B7830DC0220F2F
:1002E000331F441F551F24833583468357838281E0
:1002F000938101979383828324813581468157813D
:10030000DA01C9010197A109B1098F5F9F4FAF4F72
:10031000BF4328F30BC0918333822282EA0CFB1C7B
:100320000C1D1D1DE482F5820683178383E0808304
:10033000248135814681578157FF1AC0C901AA27F8
:1003400097FDA095BA2F81709070A070B0705695EF
:10035000479537952795822B932BA42BB52B848318
:100360009583A683B7838281938101969383828349
:10037000DF0101C0D201CD01CDB7DEB7E2E10C94BF
:10038000F116A0E2B0E0E7ECF1E00C94E11669832D
:100390007A838B839C832D833E834F835887E9E048
:1003A000EE2EF12CEC0EFD1ECE010196B7010E943F
:1003B000D2048E010F5E1F4FCE010596B8010E9438
:1003C000D2048A8991E089278A8BC701B801AE01DE
:1003D000475E5F4F0E9475000E94FD03A096E6E015
:1003E0000C94FD16A0E2B0E0E8EFF1E00C94E11609
:1003F00069837A838B839C832D833E834F835887C5
:10040000F9E0EF2EF12CEC0EFD1ECE010196B701A6
:100410000E94D2048E010F5E1F4FCE010596B801D7
:100420000E94D204C701B801AE01475E5F4F0E942F
:1004300075000E94FD03A096E6E00C94FD16A0E274
:10044000B0E0E5E2F2E00C94D51669837A838B8301
:100450009C832D833E834F835887CE010196BE0136
:10046000675F7F4F0E94D204CE010596BE016F5E8A
:100470007F4F0E94D2049985923088F0898982301A
:10048000C8F0943019F4823051F404C0843029F457
:10049000923081F481E891E0C6C0923049F420E0C6
:1004A0009A858A89981321E02A87CE010996BBC0D4
:1004B000823049F420E09A858A89981321E02A8BBA
:1004C000CE014196B0C02D843E844F8458886D88FB
:1004D0007E888F88988CEE24FF248701AA24BB2471
:1004E000650140E050E060E070E0E0E0F0E0C10174
:1004F00081709070892BE9F0E60CF71C081D191D1E
:100500009A01AB012A0D3B1D4C1D5D1D80E090E062
:10051000A0E0B0E0E614F7040805190520F481E036
:1005200090E0A0E0B0E0BA01A901480F591F6A1F8E
:100530007B1FAA0CBB1CCC1CDD1C97FE08C081E0F5
:1005400090E0A0E0B0E0A82AB92ACA2ADB2A3196B6
:10055000E032F10549F0660C771C881C991C569412
:10056000479437942794C3CFFA85EA892B893C892D
:100570008B859C85280F391F2E5F3F4F17C0CA01FE
:1005800081709070892B61F016950795F794E79428
:1005900080E090E0A0E0B0E8E82AF92A0A2B1B2BC3
:1005A00076956795579547952F5F3F4F77FDE7CF36
:1005B0000CC0440F551F661F771F17FD4160EE0CDE
:1005C000FF1C001F111F21503040403090E05907A0
:1005D00090E0690790E4790760F32B8F3C8FDB0193
:1005E000CA018F779070A070B07080349105A1051A
:1005F000B10561F447FD0AC0E114F10401051105DC
:1006000029F0405C5F4F6F4F7F4F40781A8EFE1786
:1006100011F081E08A8F4D8F5E8F6F8F78A383E01A
:10062000898FCE0149960E94FD03A096E2E10C94C9
:10063000F116A8E1B0E0EFE1F3E00C94E116698374
:100640007A838B839C832D833E834F83588789E0F5
:10065000E82EF12CEC0EFD1ECE010196B7010E9492
:10066000D2048E010F5E1F4FCE010596B8010E9485
:10067000D2048985823040F08989823028F0C70110
:10068000B8010E944A0501C08FEF6896E6E00C941D
:10069000FD16A8E1B0E0EFE4F3E00C94E116698305
:1006A0007A838B839C832D833E834F83588789E095
:1006B000E82EF12CEC0EFD1ECE010196B7010E9432
:1006C000D2048E010F5E1F4FCE010596B8010E9425
:1006D000D2048985823040F08989823028F0C701B0
:1006E000B8010E944A0501C08FEF6896E6E00C94BD
:1006F000FD16A8E1B0E0EFE7F3E00C94E1166983A2
:100700007A838B839C832D833E834F83588789E034
:10071000E82EF12CEC0EFD1ECE010196B7010E94D1
:10072000D2048E010F5E1F4FCE010596B8010E94C4
:10073000D2048985823040F08989823028F0C7014F
:10074000B8010E944A0501C081E06896E6E00C9479
:10075000FD16ACE0B0E0EFEAF3E00C94E516698337
:100760007A838B839C83CE010196BE016B5F7F4FA2
:100770000E94D2048D81823061F1823050F1843048
:1007800021F48E81882351F12EC02F81388537FDC9
:1007900020C06E812F3131051CF06623F9F023C093
:1007A0008EE190E0821B930B29853A854B855C8511
:1007B00004C056954795379527958A95D2F76623B5
:1007C000B1F050954095309521953F4F4F4F5F4F79
:1007D0000EC020E030E040E050E009C02FEF3FEFD6
:1007E0004FEF5FE704C020E030E040E050E8B9019F
:1007F000CA012C96E2E00C940117DF92EF92FF926F
:100800000F931F93FC01E480F58006811781D1804E
:100810008081823048F480E090E0A0E1B0E0E82AF6
:10082000F92A0A2B1B2BA5C0843009F49FC0823003
:1008300021F4EE24FF24870105C0E114F104010531
:10084000110519F4E0E0F0E096C0628173819FEF3A
:10085000623879070CF05BC022E83FEF261B370BAC
:100860002A3131052CF020E030E040E050E02AC091
:10087000B801A701022E04C0769567955795479554
:100880000A94D2F781E090E0A0E0B0E004C0880FC5
:10089000991FAA1FBB1F2A95D2F70197A109B10979
:1008A0008E219F21A023B1230097A105B10521F03E
:1008B00081E090E0A0E0B0E09A01AB01282B392B59
:1008C0004A2B5B2BDA01C9018F779070A070B07052
:1008D00080349105A105B10539F427FF09C0205CDA
:1008E0003F4F4F4F5F4F04C0215C3F4F4F4F5F4F13
:1008F000E0E0F0E02030A0E03A07A0E04A07A0E402
:100900005A0710F0E1E0F0E079018A0127C0603871
:10091000710564F5FB01E158FF4FD801C7018F77DE
:100920009070A070B07080349105A105B10539F4C4
:10093000E7FE0DC080E490E0A0E0B0E004C08FE3EB
:1009400090E0A0E0B0E0E80EF91E0A1F1B1F17FFA1
:1009500005C016950795F794E794319687E01695AC
:100960000795F794E7948A95D1F705C0EE24FF2404
:100970008701EFEFF0E06E2F679566276795902F60
:100980009F77D794DD24D7948E2F8695492F462BB9
:10099000582F5D29B701CA011F910F91FF90EF9069
:1009A000DF900895FC01DB01408151812281622F9B
:1009B0006F7770E0221F2227221F9381892F880FD3
:1009C000822B282F30E0991F9927991F11969C930D
:1009D000119721153105A9F54115510561057105DD
:1009E00011F482E037C082E89FEF13969C938E93B8
:1009F00012979A01AB0167E0220F331F441F551F66
:100A00006A95D1F783E08C930DC0220F331F441FEA
:100A1000551F12968D919C911397019713969C9355
:100A20008E931297203080E0380780E0480780E4FA
:100A3000580758F314962D933D934D935C93179755
:100A400008952F3F310579F4411551056105710570
:100A500019F484E08C93089564FF03C081E08C93C3
:100A600012C01C9210C02F57304013963C932E9307
:100A7000129783E08C9387E0440F551F661F771F02
:100A80008A95D1F7706414964D935D936D937C9322
:100A9000179708951F93DC01FB019C91923008F495
:100AA00047C08081823008F443C0943051F41196DD
:100AB0001C91843099F58181682F70E0611B710968
:100AC0003FC0843021F0923031F48230B9F181811D
:100AD000882389F12DC011961C9111978230F1F075
:100AE00081811817D9F412962D913C911397828128
:100AF00093818217930794F028173907BCF0149656
:100B00008D919D910D90BC91A02D248135814681C0
:100B10005781281739074A075B0718F4112341F05A
:100B20000AC082179307A407B50740F4112319F0F0
:100B300061E070E005C06FEF7FEF02C060E070E041
:100B4000CB011F910895DF93CF93CDB7DEB7A7E216
:100B5000B0E0E7E2F0E0808180648C93A6E2B0E050
:100B6000E6E2F0E0808180688C93A6E2B0E0E6E205
:100B7000F0E0808187608C93CF91DF910895DF93BF
:100B8000CF930F92CDB7DEB78983A7E2B0E0E7E25B
:100B9000F0E08081807E8C93A7E2B0E0E7E2F0E0B5
:100BA00090818981892B8C93A6E2B0E0E6E2F0E0A7
:100BB000808180648C93E6E2F0E080818295869566
:100BC00086958370882F90E081709070882399F7C4
:100BD000E4E2F0E0808191810F90CF91DF91089560
:100BE000DF93CF93CDB7DEB727970FB6F894DEBF6C
:100BF0000FBECDBF89836A834B838B81813009F01F
:100C00006FC08981282F30E03F832E838E819F81A2
:100C10008130910549F12E813F81223031052CF43C
:100C20008E819F81009761F0D2C02E813F8122305A
:100C3000310571F18E819F8183309105E9F1C7C043
:100C4000AAE3B0E0EAE3F0E08081482F8A81282F10
:100C500030E081E090E0022E02C0880F991F0A94D4
:100C6000E2F7842B8C93B3C0A7E3B0E0E7E3F0E0B6
:100C70008081482F8A81282F30E081E090E0022E89
:100C800002C0880F991F0A94E2F7842B8C939FC0AF
:100C9000A4E3B0E0E4E3F0E08081482F8A81282FCC
:100CA00030E081E090E0022E02C0880F991F0A9484
:100CB000E2F7842B8C938BC0A1E3B0E0E1E3F0E09A
:100CC0008081482F8A81282F30E081E090E0022E39
:100CD00002C0880F991F0A94E2F7842B8C9377C087
:100CE0008B81882309F073C08981282F30E03D83F0
:100CF0002C838C819D818130910559F12C813D811E
:100D0000223031052CF48C819D81009769F05FC001
:100D10002C813D812230310589F18C819D81833088
:100D2000910509F440C053C0AAE3B0E0EAE3F0E063
:100D30008081482F8A81282F30E081E090E0022EC8
:100D400002C0880F991F0A94E2F7809584238C9340
:100D50003EC0A7E3B0E0E7E3F0E08081482F8A815E
:100D6000282F30E081E090E0022E02C0880F991F0A
:100D70000A94E2F7809584238C9329C0A4E3B0E021
:100D8000E4E3F0E08081482F8A81282F30E081E081
:100D900090E0022E02C0880F991F0A94E2F7809516
:100DA00084238C9314C0A1E3B0E0E1E3F0E0808100
:100DB000482F8A81282F30E081E090E0022E02C087
:100DC000880F991F0A94E2F7809584238C932796C5
:100DD0000FB6F894DEBF0FBECDBFCF91DF9108955F
:100DE000DF93CF93CDB7DEB727970FB6F894DEBF6A
:100DF0000FBECDBF89836A834B838B81813009F01D
:100E00006FC08981282F30E03F832E838E819F81A0
:100E10008130910549F12E813F81223031052CF43A
:100E20008E819F81009761F0D2C02E813F81223058
:100E3000310571F18E819F8183309105E9F1C7C041
:100E4000ABE3B0E0EBE3F0E08081482F8A81282F0C
:100E500030E081E090E0022E02C0880F991F0A94D2
:100E6000E2F7842B8C93B3C0A8E3B0E0E8E3F0E0B2
:100E70008081482F8A81282F30E081E090E0022E87
:100E800002C0880F991F0A94E2F7842B8C939FC0AD
:100E9000A5E3B0E0E5E3F0E08081482F8A81282FC8
:100EA00030E081E090E0022E02C0880F991F0A9482
:100EB000E2F7842B8C938BC0A2E3B0E0E2E3F0E096
:100EC0008081482F8A81282F30E081E090E0022E37
:100ED00002C0880F991F0A94E2F7842B8C9377C085
:100EE0008B81882309F073C08981282F30E03D83EE
:100EF0002C838C819D818130910559F12C813D811C
:100F0000223031052CF48C819D81009769F05FC0FF
:100F10002C813D812230310589F18C819D81833086
:100F2000910509F440C053C0ABE3B0E0EBE3F0E05F
:100F30008081482F8A81282F30E081E090E0022EC6
:100F400002C0880F991F0A94E2F7809584238C933E
:100F50003EC0A8E3B0E0E8E3F0E08081482F8A815A
:100F6000282F30E081E090E0022E02C0880F991F08
:100F70000A94E2F7809584238C9329C0A5E3B0E01E
:100F8000E5E3F0E08081482F8A81282F30E081E07E
:100F900090E0022E02C0880F991F0A94E2F7809514
:100FA00084238C9314C0A2E3B0E0E2E3F0E08081FC
:100FB000482F8A81282F30E081E090E0022E02C085
:100FC000880F991F0A94E2F7809584238C932796C3
:100FD0000FB6F894DEBF0FBECDBFCF91DF9108955D
:100FE000DF93CF9300D000D000D0CDB7DEB7898398
:100FF0006A838981282F30E03D832C834C815D8179
:101000004130510549F18C819D818230910534F444
:101010002C813D812115310561F057C04C815D81E6
:101020004230510561F18C819D8183309105D1F170
:101030004CC0E9E3F0E08081282F30E08A81882FDE
:1010400090E0A90102C0559547958A95E2F7CA013B
:10105000582F51705B833AC0E6E3F0E08081282F7F
:1010600030E08A81882F90E0A90102C0559547950C
:101070008A95E2F7CA01582F51705B8327C0E3E3DA
:10108000F0E08081282F30E08A81882F90E0A9014C
:1010900002C0559547958A95E2F7CA01582F5170BD
:1010A0005B8314C0E0E3F0E08081282F30E08A8188
:1010B000882F90E0A90102C0559547958A95E2F7DF
:1010C000CA01582F51705B8301C002C08B818E838F
:1010D0008E8126960FB6F894DEBF0FBECDBFCF919E
:1010E000DF910895DF93CF9300D000D0CDB7DEB766
:1010F00089836A838981282F30E03C832B838B810D
:101100009C8181309105D1F02B813C8122303105C9
:101110002CF48B819C81009761F01EC02B813C8157
:101120002230310581F08B819C818330910581F0E3
:1011300013C0EAE3F0E08A8180830EC0E7E3F0E0C9
:101140008A81808309C0E4E3F0E08A81808304C05F
:10115000E1E3F0E08A8180830F900F900F900F9071
:10116000CF91DF910895DF93CF9300D000D0CDB71A
:10117000DEB789836A838981282F30E03C832B8303
:101180008B819C8181309105D1F02B813C81223073
:1011900031052CF48B819C81009761F01EC02B815E
:1011A0003C812230310581F08B819C818330910517
:1011B00081F013C0EBE3F0E08A8180830EC0E8E3A6
:1011C000F0E08A81808309C0E5E3F0E08A818083D2
:1011D00004C0E2E3F0E08A8180830F900F900F90CB
:1011E0000F90CF91DF910895DF93CF9300D000D07F
:1011F000CDB7DEB789836A838981282F30E03C83AD
:101200002B838B819C818130910549F12B813C811D
:10121000223031052CF48B819C81009761F05AC0FB
:101220002B813C812230310571F18B819C8183308F
:101230009105E9F14FC0ABE3B0E0EBE3F0E0808172
:10124000482F8A81282F30E081E090E0022E02C0F2
:10125000880F991F0A94E2F784278C933BC0A8E378
:10126000B0E0E8E3F0E08081482F8A81282F30E069
:1012700081E090E0022E02C0880F991F0A94E2F7E5
:1012800084278C9327C0A5E3B0E0E5E3F0E08081FC
:10129000482F8A81282F30E081E090E0022E02C0A2
:1012A000880F991F0A94E2F784278C9313C0A2E356
:1012B000B0E0E2E3F0E08081482F8A81282F30E01F
:1012C00081E090E0022E02C0880F991F0A94E2F795
:1012D00084278C930F900F900F900F90CF91DF91F8
:1012E0000895DF93CF93CDB7DEB761970FB6F8942B
:1012F000DEBF0FBECDBF988B8F87698B0E944D10CC
:101300008F859889892F992780650E9496108F85EF
:101310000E94E81089890E94E8100E94811080E0F4
:1013200090E0A0E2B1E48B879C87AD87BE876B8598
:101330007C858D859E8520E030E04AEF54E40E9454
:101340001F02DC01CB018F839887A987BA876F8141
:10135000788589859A8520E030E040E85FE30E9447
:10136000790388232CF481E090E09E838D833FC035
:101370006F81788589859A8520E03FEF4FE757E4B4
:101380000E94190318164CF56B857C858D859E850A
:1013900020E030E040E251E40E941F02DC01CB017A
:1013A000BC01CD010E944900DC01CB019E838D83ED
:1013B0000FC088EC90E09C838B838B819C8101978C
:1013C000F1F79C838B838D819E8101979E838D8312
:1013D0008D819E81009769F714C06F81788589851A
:1013E0009A850E944900DC01CB019E838D838D810B
:1013F0009E819A83898389819A810197F1F79A83E3
:10140000898361960FB6F894DEBF0FBECDBFCF9132
:10141000DF910895DF93CF9300D00F92CDB7DEB761
:101420009B838A830E944D108A819B81892F9927F3
:1014300080650E9496108A810E94E8100E944D10DB
:101440008A819B81892F992780650E94BF100E9405
:10145000271189830E94811089810F900F900F902E
:10146000CF91DF910895DF93CF93CDB7DEB780E0C2
:101470006FE00E94720880E06FEF0E94B308CF9186
:10148000DF910895DF93CF93CDB7DEB763970FB6A3
:10149000F894DEBF0FBECDBF1A8ADEC08A89882FBE
:1014A00090E0FC01E756FE4F908180E0692F40E01C
:1014B0000E94F006198ABDC08989882F90E0FC013E
:1014C000E356FE4F8081282F30E080E090E0B901A4
:1014D0000E94F007888B8889882309F0A7C080E0E4
:1014E00090E0A0EAB1E48B879C87AD87BE876B85CF
:1014F0007C858D859E8520E030E04AEF54E40E9493
:101500001F02DC01CB018F839887A987BA876F817F
:10151000788589859A8520E030E040E85FE30E9485
:10152000790388232CF481E090E09E838D833FC073
:101530006F81788589859A8520E03FEF4FE757E4F2
:101540000E94190318164CF56B857C858D859E8548
:1015500020E030E040E251E40E941F02DC01CB01B8
:10156000BC01CD010E944900DC01CB019E838D832B
:101570000FC088EC90E09C838B838B819C810197CA
:10158000F1F79C838B838D819E8101979E838D8350
:101590008D819E81009769F714C06F817885898558
:1015A0009A850E944900DC01CB019E838D838D8149
:1015B0009E819A83898389819A810197F1F79A8321
:1015C00089838989882F90E0FC01E356FE4F808152
:1015D000282F30E080E090E0B9010E94F007888B6E
:1015E0000FC08989882F90E0FC01E356FE4F80816F
:1015F000282F30E080E090E0B9010E94F007888B4E
:101600008889882371F38A89482F50E08989282F97
:1016100030E0CA01880F991F880F991F820F931F0E
:10162000FC01E757FE4F80818B8B1CC089898F5F3F
:10163000898B8989843008F43FCF8A89882F90E08C
:10164000FC01E756FE4F908180E0692F41E00E9447
:10165000F0068A898F5F8A8B8A89843008F41ECFCE
:101660008FEF8B8B8B8963960FB6F894DEBF0FBE1E
:10167000CDBFCF91DF910895DF93CF93CDB7DEB784
:10168000E8970FB6F894DEBF0FBECDBF81E06FEFD5
:101690000E94720883E062E041E00E94F00583E06E
:1016A00063E041E00E94F00583E064E041E00E94D5
:1016B000F00580E090E0A0EFB1E48DAB9EABAFAB66
:1016C000B8AF6DA97EA98FA998AD20E030E04AEFB0
:1016D00054E40E941F02DC01CB0189AB9AABABAB97
:1016E000BCAB69A97AA98BA99CA920E030E040E8AD
:1016F0005FE30E94790388232CF481E090E098ABAB
:101700008FA73FC069A97AA98BA99CA920E03FEFC8
:101710004FE757E40E94190318164CF56DA97EA9EE
:101720008FA998AD20E030E040E251E40E941F0212
:10173000DC01CB01BC01CD010E944900DC01CB01E1
:1017400098AB8FA70FC088EC90E09EA78DA78DA5C2
:101750009EA50197F1F79EA78DA78FA598A9019740
:1017600098AB8FA78FA598A9009769F714C069A9AE
:101770007AA98BA99CA90E944900DC01CB0198ABF6
:101780008FA78FA598A99CA78BA78BA59CA5019730
:10179000F1F79CA78BA788E30E94330D80E090E0CF
:1017A000A0E8BFE38FA398A7A9A7BAA76FA178A5C0
:1017B00089A59AA520E030E04AEF54E40E941F0278
:1017C000DC01CB018BA39CA3ADA3BEA36BA17CA129
:1017D0008DA19EA120E030E040E85FE30E94790304
:1017E00088232CF481E090E09AA389A33FC06BA1E9
:1017F0007CA18DA19EA120E03FEF4FE757E40E941E
:10180000190318164CF56FA178A589A59AA520E0B3
:1018100030E040E251E40E941F02DC01CB01BC0138
:10182000CD010E944900DC01CB019AA389A30FC01E
:1018300088EC90E098A38F8F8F8D98A10197F1F796
:1018400098A38F8F89A19AA101979AA389A389A1AF
:101850009AA1009769F714C06BA17CA18DA19EA1EC
:101860000E944900DC01CB019AA389A389A19AA116
:101870009E8F8D8F8D8D9E8D0197F1F79E8F8D8F11
:101880008FE00E94330D80E090E0A0E8BFE3898FF5
:101890009A8FAB8FBC8F698D7A8D8B8D9C8D20E05C
:1018A00030E04AEF54E40E941F02DC01CB018D8B33
:1018B0009E8BAF8BB88F6D897E898F89988D20E044
:1018C00030E040E85FE30E94790388232CF481E054
:1018D00090E09C8B8B8B3FC06D897E898F89988D22
:1018E00020E03FEF4FE757E40E94190318164CF52C
:1018F000698D7A8D8B8D9C8D20E030E040E251E443
:101900000E941F02DC01CB01BC01CD010E944900F5
:10191000DC01CB019C8B8B8B0FC088EC90E09A8B09
:10192000898B89899A890197F1F79A8B898B8B89A1
:101930009C8901979C8B8B8B8B899C89009769F77D
:1019400014C06D897E898F89988D0E944900DC01C1
:10195000CB019C8B8B8B8B899C89988B8F878F85F8
:1019600098890197F1F7988B8F8781E00E94330D5A
:1019700080E090E0A0E0B0E48B879C87AD87BE87D5
:101980006B857C858D859E8520E030E04AEF54E4B0
:101990000E941F02DC01CB018F839887A987BA8739
:1019A0006F81788589859A8520E030E040E85FE3A3
:1019B0000E94790388232CF481E090E09E838D833C
:1019C0003FC06F81788589859A8520E03FEF4FE79A
:1019D00057E40E94190318164CF56B857C858D859C
:1019E0009E8520E030E040E251E40E941F02DC01CD
:1019F000CB01BC01CD010E944900DC01CB019E83DB
:101A00008D830FC088EC90E09C838B838B819C81BD
:101A10000197F1F79C838B838D819E8101979E8333
:101A20008D838D819E81009769F714C06F817885C1
:101A300089859A850E944900DC01CB019E838D83B4
:101A40008D819E819A83898389819A810197F1F79B
:101A50009A838983E8960FB6F894DEBF0FBECDBF98
:101A6000CF91DF910895DF93CF93CDB7DEB72F9756
:101A70000FB6F894DEBF0FBECDBF8F8783E062E064
:101A800040E00E94F00683E063E040E00E94F00640
:101A900081E06F850E94B30883E064E041E00E942A
:101AA000F00680E090E0A0E0B0E48B879C87AD87F3
:101AB000BE876B857C858D859E8520E030E04AEF72
:101AC00054E40E941F02DC01CB018F839887A98711
:101AD000BA876F81788589859A8520E030E040E873
:101AE0005FE30E94790388232CF481E090E09E83D9
:101AF0008D833FC06F81788589859A8520E03FEF8F
:101B00004FE757E40E94190318164CF56B857C8546
:101B10008D859E8520E030E040E251E40E941F0266
:101B2000DC01CB01BC01CD010E944900DC01CB01ED
:101B30009E838D830FC088EC90E09C838B838B8188
:101B40009C810197F1F79C838B838D819E81019706
:101B50009E838D838D819E81009769F714C06F816C
:101B6000788589859A850E944900DC01CB019E8396
:101B70008D838D819E819A83898389819A81019742
:101B8000F1F79A83898383E064E040E00E94F006E5
:101B90002F960FB6F894DEBF0FBECDBFCF91DF9169
:101BA0000895DF93CF93CDB7DEB76D970FB6F89456
:101BB000DEBF0FBECDBF8D8F83E062E041E00E94AB
:101BC000F00683E063E040E00E94F00681E06D8D66
:101BD0000E94B30883E064E041E00E94F00680E0E8
:101BE00090E0A0E0B0E4898F9A8FAB8FBC8F698DB5
:101BF0007A8D8B8D9C8D20E030E04AEF54E40E947A
:101C00001F02DC01CB018D8B9E8BAF8BB88F6D8952
:101C10007E898F89988D20E030E040E85FE30E9464
:101C2000790388232CF481E090E09C8B8B8B3FC060
:101C30006D897E898F89988D20E03FEF4FE757E4CB
:101C40000E94190318164CF5698D7A8D8B8D9C8D29
:101C500020E030E040E251E40E941F02DC01CB01B1
:101C6000BC01CD010E944900DC01CB019C8B8B8B18
:101C70000FC088EC90E09A8B898B89899A890197AB
:101C8000F1F79A8B898B8B899C8901979C8B8B8B25
:101C90008B899C89009769F714C06D897E898F892B
:101CA000988D0E944900DC01CB019C8B8B8B8B892A
:101CB0009C89988B8F878F8598890197F1F7988BEE
:101CC0008F8783E064E040E00E94F00680E090E0CF
:101CD000A0E0B0E48B879C87AD87BE876B857C8551
:101CE0008D859E8520E030E04AEF54E40E941F027B
:101CF000DC01CB018F839887A987BA876F817885AC
:101D000089859A8520E030E040E85FE30E9479030E
:101D100088232CF481E090E09E838D833FC06F8107
:101D2000788589859A8520E03FEF4FE757E40E9448
:101D3000190318164CF56B857C858D859E8520E0F2
:101D400030E040E251E40E941F02DC01CB01BC0103
:101D5000CD010E944900DC01CB019E838D830FC021
:101D600088EC90E09C838B838B819C810197F1F7B9
:101D70009C838B838D819E8101979E838D838D8132
:101D80009E81009769F714C06F81788589859A854F
:101D90000E944900DC01CB019E838D838D819E8151
:101DA0009A83898389819A810197F1F79A8389833C
:101DB0006D960FB6F894DEBF0FBECDBFCF91DF9109
:101DC0000895DF93CF93CDB7DEB760970FB6F89441
:101DD000DEBF0FBECDBF988B8F877CC0EF85F889A3
:101DE00080810E94D10D8F8598890196988B8F876D
:101DF00080E090E0A0EAB0E48B879C87AD87BE8747
:101E00006B857C858D859E8520E030E04AEF54E42B
:101E10000E941F02DC01CB018F839887A987BA87B4
:101E20006F81788589859A8520E030E040E85FE31E
:101E30000E94790388232CF481E090E09E838D83B7
:101E40003FC06F81788589859A8520E03FEF4FE715
:101E500057E40E94190318164CF56B857C858D8517
:101E60009E8520E030E040E251E40E941F02DC0148
:101E7000CB01BC01CD010E944900DC01CB019E8356
:101E80008D830FC088EC90E09C838B838B819C8139
:101E90000197F1F79C838B838D819E8101979E83AF
:101EA0008D838D819E81009769F714C06F8178853D
:101EB00089859A850E944900DC01CB019E838D8330
:101EC0008D819E819A83898389819A810197F1F717
:101ED0009A838983EF85F8898081882309F07ECFF2
:101EE00060960FB6F894DEBF0FBECDBFCF91DF91E5
:101EF0000895DF93CF9300D000D0CDB7DEB78983AC
:101F00006A838981282F30E03C832B838B819C81DD
:101F10008130910531F02B813C812230310531F047
:101F200009C08A8180580E94330D04C08A81805480
:101F30000E94330D0F900F900F900F90CF91DF9173
:101F40000895DF93CF93CDB7DEB7AFE4B0E0EFE411
:101F5000F0E080818E7F8C93AFE4B0E0EFE4F0E0BE
:101F6000808182608C93AEE4B0E0EEE4F0E08081AA
:101F700088608C93AEE4B0E0EEE4F0E080818061B4
:101F80008C93AFE4B0E0EFE4F0E080818F7B8C9342
:101F9000AFE4B0E0EFE4F0E0808180688C93E6E4A9
:101FA000F0E08FE19EE491838083AEE4B0E0EEE464
:101FB000F0E080818E7F8C93AEE4B0E0EEE4F0E060
:101FC000808182608C93AEE4B0E0EEE4F0E080814A
:101FD0008B7F8C93CF91DF910895DF93CF930F92F6
:101FE000CDB7DEB78983EAE4F0E08981282F30E0BD
:101FF00082E390E0AC01249FC001259F900D349FA7
:10200000900D1124815E9C4D29E030E0B9010E94C1
:102010008C16CB01918380830F90CF91DF9108952F
:10202000DF93CF93CDB7DEB7E0E2F0E08CE08083C2
:10203000A1E2B0E0E1E2F0E080818E7F8C93A1E24A
:10204000B0E0E1E2F0E080818D7F8C93A6E5B0E026
:10205000E6E5F0E0808184608C93CF91DF91089574
:10206000DF93CF930F92CDB7DEB78983A6E5B0E0BB
:10207000E6E5F0E0808180648C93E2E2F0E0898123
:10208000880F8083A6E5B0E0E6E5F0E0808184601B
:102090008C930F90CF91DF910895DF93CF93CDB7BD
:1020A000DEB7A6E5B0E0E6E5F0E0808180628C93E3
:1020B000A6E5B0E0E6E5F0E0808180688C93E6E597
:1020C000F0E080818823DCF7CF91DF910895DF93E2
:1020D000CF93CDB7DEB7A6E5B0E0E6E5F0E08081CE
:1020E00080688C93A6E5B0E0E6E5F0E08081806250
:1020F0008C93E6E5F0E080818823DCF7CF91DF91D7
:102100000895DF93CF93CDB7DEB7A6E5B0E0E6E55F
:10211000F0E0808180618C93A6E5B0E0E6E5F0E038
:10212000808180688C93CF91DF910895DF93CF9366
:102130000F92CDB7DEB78983E3E2F0E08981880FA3
:102140008083A3E2B0E0E3E2F0E080818E7F8C93B5
:10215000A6E5B0E0E6E5F0E080818F7D8C93A6E512
:10216000B0E0E6E5F0E0808180688C93E6E5F0E0A1
:1021700080818823DCF70F90CF91DF910895DF9362
:10218000CF930F92CDB7DEB78983E3E2F0E0898188
:10219000880F8083A3E2B0E0E3E2F0E08081816019
:1021A0008C93A6E5B0E0E6E5F0E080818F7D8C932E
:1021B000A6E5B0E0E6E5F0E0808180688C93E6E596
:1021C000F0E080818823DCF70F90CF91DF910895B4
:1021D000DF93CF930F92CDB7DEB78983E3E2F0E0D0
:1021E00089818083A6E5B0E0E6E5F0E08081806843
:1021F0008C93E6E5F0E080818823DCF70F90CF91A7
:10220000DF910895DF93CF93CDB7DEB7E1E2F0E041
:102210008081882F90E0887F907080369105B1F79B
:10222000A6E5B0E0E6E5F0E0808180688C93E1E22D
:10223000F0E08081882F90E0887F90708038910551
:10224000B1F7E3E2F0E08081CF91DF910895DF9371
:10225000CF93CDB7DEB7A6E5B0E0E6E5F0E080814C
:1022600080688C93E6E5F0E080818823DCF7E3E288
:10227000F0E08081CF91DF910895DF93CF9300D07C
:102280000F92CDB7DEB783E390E09B838A8380E82B
:102290008983E9E2F0E08A818083E0E4F0E08A81EA
:1022A0009B81892F99278083ABE2B0E0EBE2F0E0DD
:1022B00080818D7F8C93ABE2B0E0EBE2F0E0808137
:1022C0008E7F8C93AAE2B0E0EAE2F0E08081806148
:1022D0008C93AAE2B0E0EAE2F0E0808188608C931F
:1022E000AAE2B0E0EAE2F0E080818B7F8C93898102
:1022F0008260898389818460898389818F7B8983D6
:1023000089818F7E898389818F7D89838981886096
:102310008983E0E4F0E0898180830F900F900F9033
:10232000CF91DF910895DF93CF930F92CDB7DEB7B2
:102330008983EBE2F0E08081829586958770882F13
:1023400090E0817090700097A1F3ECE2F0E0898159
:1023500080830F90CF91DF910895DF93CF93CDB716
:10236000DEB7EBE2F0E080818823DCF7ECE2F0E01E
:102370008081CF91DF910895DF93CF93CDB7DEB702
:1023800061970FB6F894DEBF0FBECDBF0E943C0B25
:102390000E94330A0E943D110E94A3050E94101062
:1023A00081E090E06BE70E9471090E940E1382E0C9
:1023B00062E041E00E94F00582E063E041E00E94BB
:1023C000F00582E063E040E00E94F00681E00E94B8
:1023D000330D81E060E00E94790F80E690E00E947A
:1023E000E10E82E06DE00E94790F81E790E00E94AB
:1023F000E10E198A188A81E090E00E940A0A80930F
:10240000A2011F8606C10E943415998B888B80918A
:10241000A201282F30E0888999892817390709F007
:10242000B3C08AE50E94931181E00E94330D0E949F
:10243000781581E061E00E94790F85E790E00E94C5
:10244000E10E82E063E00E94790F84E890E00E9450
:10245000E10E80E090E0AAEFB3E48B879C87AD8724
:10246000BE876B857C858D859E8520E030E04AEFB8
:1024700054E40E941F02DC01CB018F839887A98757
:10248000BA876F81788589859A8520E030E040E8B9
:102490005FE30E94790388232CF481E090E09E831F
:1024A0008D833FC06F81788589859A8520E03FEFD5
:1024B0004FE757E40E94190318164CF56B857C858D
:1024C0008D859E8520E030E040E251E40E941F02AD
:1024D000DC01CB01BC01CD010E944900DC01CB0134
:1024E0009E838D830FC088EC90E09C838B838B81CF
:1024F0009C810197F1F79C838B838D819E8101974D
:102500009E838D838D819E81009769F714C06F81B2
:10251000788589859A850E944900DC01CB019E83DC
:102520008D838D819E819A83898389819A81019788
:10253000F1F79A83898381E00E94330D81E060E0A6
:102540000E94790F8EE890E00E94E10E82E060E048
:102550000E94790F8FE990E00E94E10E0E94420AEA
:102560008093A3018091A3018F3F41F38091A30148
:10257000813319F40E94A313E1CF8091A301823328
:10258000E9F60E94E013DACF8F858230E1F481E032
:102590000E94330D81E063E00E94790F80EB90E0B0
:1025A0000E94E10E82E060E00E94790F8AEB90E0E9
:1025B0000E94E10E8EE40E94931182E063E041E00C
:1025C0000E94F0061ECF81E00E94330D81E060E0A2
:1025D0000E94790F8BEC90E00E94E10E82E06DE0AA
:1025E0000E94790F87ED90E00E94E10E8F85882F81
:1025F00090E00296AA2797FDA095BA2FBC01CD01C5
:102600000E941D1689ED90E00E94E10E8F858F5F7C
:102610008F878F85833008F4F6CEF3CEDF93CF9388
:10262000CDB7DEB72E970FB6F894DEBF0FBECDBF85
:1026300081E060E00E94790F8BED90E00E94E10E56
:1026400082E060E00E94790F8AEE90E00E94E10E45
:1026500080E090E0A6E1B4E48B879C87AD87BE87DD
:102660006B857C858D859E8520E030E04AEF54E4C3
:102670000E941F02DC01CB018F839887A987BA874C
:102680006F81788589859A8520E030E040E85FE3B6
:102690000E94790388232CF481E090E09E838D834F
:1026A0003FC06F81788589859A8520E03FEF4FE7AD
:1026B00057E40E94190318164CF56B857C858D85AF
:1026C0009E8520E030E040E251E40E941F02DC01E0
:1026D000CB01BC01CD010E944900DC01CB019E83EE
:1026E0008D830FC088EC90E09C838B838B819C81D1
:1026F0000197F1F79C838B838D819E8101979E8347
:102700008D838D819E81009769F714C06F817885D4
:1027100089859A850E944900DC01CB019E838D83C7
:102720008D819E819A83898389819A810197F1F7AE
:102730009A8389832E960FB6F894DEBF0FBECDBF65
:10274000CF91DF910895DF93CF930F92CDB7DEB78E
:10275000198281E00E94330D82E50E94931181E08D
:1027600060E00E94790F8BEF90E00E94E10E82E022
:1027700060E00E94790F8CE091E00E94E10E0E94DF
:10278000420A898389818F3F51F38981813319F40A
:102790000E941714E4CF8981823319F40E945014E7
:1027A000DECF8981833319F40E94FB14D8CF83E2F2
:1027B0000E9493111092A3010F90CF91DF91089581
:1027C000DF93CF930F92CDB7DEB7198281E00E94DD
:1027D000330D82E70E94931181E060E00E94790F3F
:1027E00083E191E00E94E10E82E060E00E94790FB7
:1027F00085E291E00E94E10E0E94420A898389816C
:102800008F3F51F38981813319F40E948914E4CFF9
:102810008981823319F40E94C214DECF83E20E94C0
:1028200093111092A3010F90CF91DF910895DF9340
:10283000CF930F92CDB7DEB7198281E00E94330D9E
:1028400086E40E94931181E060E00E94790F87E3A3
:1028500091E00E94E10E82E060E00E94790F83E443
:1028600091E00E94E10E0E94420A898389818F3F94
:10287000D1F38981813339F481E30E94931181E09E
:102880000E94330D09C08981803369F780E30E947B
:10289000931181E00E94330D0F90CF91DF91089545
:1028A000DF93CF930F92CDB7DEB7198281E00E94FC
:1028B000330D8CE40E94931181E060E00E94790F57
:1028C0008FE491E00E94E10E82E060E00E94790FC7
:1028D0008DE591E00E94E10E0E94420A8983898180
:1028E0008F3FD1F38981813339F481E30E949311C1
:1028F00081E00E94330D09C08981803369F780E34C
:102900000E94931181E00E94330D0F90CF91DF91CF
:102910000895DF93CF930F92CDB7DEB7198281E090
:102920000E94330D86E60E94931181E060E00E94D0
:10293000790F87E391E00E94E10E82E060E00E945F
:10294000790F83E491E00E94E10E0E94420A89839C
:1029500089818F3FD1F38981813339F481E30E94EA
:10296000931181E00E94330D09C08981803369F79A
:1029700080E30E94931181E00E94330D0F90CF916C
:10298000DF910895DF93CF930F92CDB7DEB7198211
:1029900081E00E94330D8CE60E94931181E060E09B
:1029A0000E94790F8FE491E00E94E10E82E060E0E6
:1029B0000E94790F8DE591E00E94E10E0E94420A8B
:1029C000898389818F3FD1F38981813339F481E310
:1029D0000E94931181E00E94330D09C089818033E8
:1029E00069F780E30E94931181E00E94330D0F90FC
:1029F000CF91DF910895DF93CF930F92CDB7DEB7DC
:102A0000198281E00E94330D84E50E94931181E0D8
:102A100060E00E94790F8BE691E00E94E10E82E077
:102A200060E00E94790F86E791E00E94E10E0E942B
:102A3000420A898389818F3FD1F38981813339F4B7
:102A400081E30E94931181E00E94330D09C08981C6
:102A5000803369F780E30E94931181E00E94330D77
:102A60000F90CF91DF910895DF93CF9300D000D0E6
:102A70000F92CDB7DEB782E060E00E94790F1D8231
:102A80001C821B821A820E94420A898389818F3F9D
:102A9000D1F389818033F8F089818A33E0F48AE2C6
:102AA0000E94D10D8A819B819C01220F331FC90195
:102AB000880F991F880F991F280F391F8981882F28
:102AC00090E0820F931FC0979B838A838A819B81AA
:102AD0009D838C83D8CF89818D33A9F68C819D818C
:102AE0000F900F900F900F900F90CF91DF9108955E
:102AF000DF93CF93CDB7DEB72E970FB6F894DEBF36
:102B00000FBECDBF82E062E041E00E94F00682E0AD
:102B100063E041E00E94F00680E090E0A8E4B4E4C5
:102B20008B879C87AD87BE876B857C858D859E85D1
:102B300020E030E04AEF54E40E941F02DC01CB01A8
:102B40008F839887A987BA876F81788589859A85C9
:102B500020E030E040E85FE30E94790388232CF412
:102B600081E090E09E838D833FC06F817885898569
:102B70009A8520E03FEF4FE757E40E9419031816AB
:102B80004CF56B857C858D859E8520E030E040E2AC
:102B900051E40E941F02DC01CB01BC01CD010E9467
:102BA0004900DC01CB019E838D830FC088EC90E04F
:102BB0009C838B838B819C810197F1F79C838B8312
:102BC0008D819E8101979E838D838D819E8100974B
:102BD00069F714C06F81788589859A850E944900BC
:102BE000DC01CB019E838D838D819E819A838983B5
:102BF00089819A810197F1F79A83898382E062E063
:102C000040E00E94F00682E063E040E00E94F006AF
:102C10002E960FB6F894DEBF0FBECDBFCF91DF91D9
:102C20000895DF93CF93CDB7DEB782E062E040E056
:102C30000E94F006CF91DF9108950F931F93DF93C9
:102C4000CF93CDB7DEB76B970FB6F894DEBF0FBE4C
:102C5000CDBF688F798F8A8F9B8F1B822DC08B8110
:102C6000082F10E0888D998DAA8DBB8D2AE030E069
:102C700040E050E0BC01CD010E949F16DC01CB0179
:102C8000282FCE010496FC01E00FF11F2083888DD0
:102C9000998DAA8DBB8D2AE030E040E050E0BC0168
:102CA000CD010E949F16DA01C901888F998FAA8FE2
:102CB000BB8F8B818F5F8B83888D998DAA8DBB8D08
:102CC0000097A105B10559F68B8181508B838B81CB
:102CD000882F90E09A83898310C029813A81CE01A0
:102CE0000496FC01E20FF31F8081805D0E94D10DEC
:102CF00089819A8101979A83898389819A8199230D
:102D000064F76B960FB6F894DEBF0FBECDBFCF91C0
:102D1000DF911F910F91089597FB092E07260AD086
:102D200077FD04D02ED006D000201AF4709561955E
:102D30007F4F0895F6F7909581959F4F0895A1E2F2
:102D40001A2EAA1BBB1BFD010DC0AA1FBB1FEE1F25
:102D5000FF1FA217B307E407F50720F0A21BB30B70
:102D6000E40BF50B661F771F881F991F1A9469F7EC
:102D700060957095809590959B01AC01BD01CF0148
:102D80000895AA1BBB1B51E107C0AA1FBB1FA617B2
:102D9000B70710F0A61BB70B881F991F5A95A9F704
:102DA00080959095BC01CD0108952F923F924F924E
:102DB0005F926F927F928F929F92AF92BF92CF92CB
:102DC000DF92EF92FF920F931F93CF93DF93CDB7D4
:102DD000DEB7CA1BDB0B0FB6F894DEBF0FBECDBF4C
:102DE00009942A88398848885F846E847D848C841D
:102DF0009B84AA84B984C884DF80EE80FD800C8126
:102E00001B81AA81B981CE0FD11D0FB6F894DEBF08
:0C2E10000FBECDBFED010895F894FFCF78
:102E1C00456E7465722050617373776F7264203ADB
:102E2C00005B315D00446F6F72206973204F5065F9
:102E3C006E65640057656C636F6D652E2E00312DC9
:102E4C00526F6F6D31202020202020202020003256
:102E5C002D526F6F6D32202020202020202020004A
:102E6C00376172616D792021210052657374617232
:102E7C00742053797374656D2E2E00547279206111
:102E8C006761696E2E2E005B005D002057656C63D8
:102E9C006F6D6520546F204D59002020536D617269
:102EAC007420486F6D65203A29200028312946612D
:102EBC006E202832294C6967687420002833295405
:102ECC005620002831294149522D436F6E64697494
:102EDC00696F6E20002832294C69676874202020A5
:102EEC002020202020200028312946616E3A204FD6
:102EFC004E200028302946616E3A204F4646002865
:102F0C0031294C696768743A204F4E2000283029CB
:102F1C004C696768743A204F46460028312954564C
:102F2C003A204F4E200028302954563A204F46461E
:102F3C000000000000000000003738392F3435360F
:102F4C002A3132332D43303D2B0001020304050698
:022F5C0007016B
:00000001FF
