:100000000C942A000C9458110C948B110C94BE1172
:100010000C9447000C9447000C942D0C0C94470052
:100020000C9447000C9447000C9458090C9409094F
:100030000C94490B0C947F060C94A1060C94BC06FE
:100040000C948C180C9447000C9447000C944700B7
:100050000C94470011241FBECFE5D8E0DEBFCDBF12
:1000600012E0A0E6B0E0EEE8F8E502C005900D92DF
:10007000A632B107D9F712E0A6E2B2E001C01D92A4
:10008000A635B107E1F70E9463250C94452C0C942A
:100090000000EF92FF920F931F937B018C0120E0F1
:1000A00030E040E05FE40E94490388238CF0C801FF
:1000B000B70120E030E040E05FE40E94C1010E940F
:1000C000A9039B01AC01205030404040504806C07D
:1000D000C801B7010E94A9039B01AC01B901CA0183
:1000E0001F910F91FF90EF900895A0E0B0E0EBE733
:1000F000F0E00C940E2CDC012B01FA019C91923063
:1001000008F439C1EB018881823008F433C194309E
:1001100069F4843009F02FC111969C91119789815F
:10012000981709F428C1ABEFB1E025C1843009F478
:1001300021C18230A9F4923009F01DC19A01AD01AC
:1001400088E0EA010990AE01E90109929E0181501F
:10015000C1F7E201898111969C918923818308C1AD
:10016000923009F407C112962D903C901397EB0141
:100170008A819B811496AD90BD90CD90DC901797AD
:10018000EC80FD800E811F819101281B390BB90184
:1001900037FF04C066277727621B730B6032710537
:1001A0000CF061C0121613066CF537014801062EDB
:1001B00004C096948794779467940A94D2F721E0C8
:1001C00030E040E050E004C0220F331F441F551FB1
:1001D0006A95D2F721503040404050402E213F21B7
:1001E00040235123211531054105510521F021E01E
:1001F00030E040E050E079018A01E628F72808293C
:1002000019293CC0232BD1F1260E371E350146019A
:10021000062E04C096948794779467940A94D2F734
:1002200021E030E040E050E004C0220F331F441FC3
:10023000551F6A95D2F721503040404050402A2146
:100240003B214C215D21211531054105510521F04E
:1002500021E030E040E050E059016A01A628B728CB
:10026000C828D9280BC0821593052CF01C01AA249C
:10027000BB24650103C0EE24FF24870111969C91E5
:10028000D20111968C91981709F445C0992339F041
:10029000A80197012A193B094C095D0906C0A6016E
:1002A00095012E193F09400B510B57FD08C01182D3
:1002B0003382228224833583468357831DC081E0A5
:1002C00081833382228288279927DC01821B930B4A
:1002D000A40BB50B84839583A683B7830DC0220F2F
:1002E000331F441F551F24833583468357838281E0
:1002F000938101979383828324813581468157813D
:10030000DA01C9010197A109B1098F5F9F4FAF4F72
:10031000BF4328F30BC0918333822282EA0CFB1C7B
:100320000C1D1D1DE482F5820683178383E0808304
:10033000248135814681578157FF1AC0C901AA27F8
:1003400097FDA095BA2F81709070A070B0705695EF
:10035000479537952795822B932BA42BB52B848318
:100360009583A683B7838281938101969383828349
:10037000DF0101C0D201CD01CDB7DEB7E2E10C94BF
:100380002A2CA0E2B0E0E7ECF1E00C941A2C69838F
:100390007A838B839C832D833E834F835887E9E048
:1003A000EE2EF12CEC0EFD1ECE010196B7010E943F
:1003B000D2048E010F5E1F4FCE010596B8010E9438
:1003C000D2048A8991E089278A8BC701B801AE01DE
:1003D000475E5F4F0E9475000E94FD03A096E6E015
:1003E0000C94362CA0E2B0E0E8EFF1E00C941A2C6B
:1003F00069837A838B839C832D833E834F835887C5
:10040000F9E0EF2EF12CEC0EFD1ECE010196B701A6
:100410000E94D2048E010F5E1F4FCE010596B801D7
:100420000E94D204C701B801AE01475E5F4F0E942F
:1004300075000E94FD03A096E6E00C94362CA0E225
:10044000B0E0E5E2F2E00C940E2C69837A838B83B2
:100450009C832D833E834F835887CE010196BE0136
:10046000675F7F4F0E94D204CE010596BE016F5E8A
:100470007F4F0E94D2049985923088F0898982301A
:10048000C8F0943019F4823051F404C0843029F457
:10049000923081F48BEF91E0C6C0923049F420E0B5
:1004A0009A858A89981321E02A87CE010996BBC0D4
:1004B000823049F420E09A858A89981321E02A8BBA
:1004C000CE014196B0C02D843E844F8458886D88FB
:1004D0007E888F88988CEE24FF248701AA24BB2471
:1004E000650140E050E060E070E0E0E0F0E0C10174
:1004F00081709070892BE9F0E60CF71C081D191D1E
:100500009A01AB012A0D3B1D4C1D5D1D80E090E062
:10051000A0E0B0E0E614F7040805190520F481E036
:1005200090E0A0E0B0E0BA01A901480F591F6A1F8E
:100530007B1FAA0CBB1CCC1CDD1C97FE08C081E0F5
:1005400090E0A0E0B0E0A82AB92ACA2ADB2A3196B6
:10055000E032F10549F0660C771C881C991C569412
:10056000479437942794C3CFFA85EA892B893C892D
:100570008B859C85280F391F2E5F3F4F17C0CA01FE
:1005800081709070892B61F016950795F794E79428
:1005900080E090E0A0E0B0E8E82AF92A0A2B1B2BC3
:1005A00076956795579547952F5F3F4F77FDE7CF36
:1005B0000CC0440F551F661F771F17FD4160EE0CDE
:1005C000FF1C001F111F21503040403090E05907A0
:1005D00090E0690790E4790760F32B8F3C8FDB0193
:1005E000CA018F779070A070B07080349105A1051A
:1005F000B10561F447FD0AC0E114F10401051105DC
:1006000029F0405C5F4F6F4F7F4F40781A8EFE1786
:1006100011F081E08A8F4D8F5E8F6F8F78A383E01A
:10062000898FCE0149960E94FD03A096E2E10C94C9
:100630002A2CA8E1B0E0EFE1F3E00C941A2C6983D6
:100640007A838B839C832D833E834F83588789E0F5
:10065000E82EF12CEC0EFD1ECE010196B7010E9492
:10066000D2048E010F5E1F4FCE010596B8010E9485
:10067000D2048985823040F08989823028F0C70110
:10068000B8010E944A0501C08FEF6896E6E00C941D
:10069000362CA8E1B0E0EFE4F3E00C941A2C698367
:1006A0007A838B839C832D833E834F83588789E095
:1006B000E82EF12CEC0EFD1ECE010196B7010E9432
:1006C000D2048E010F5E1F4FCE010596B8010E9425
:1006D000D2048985823040F08989823028F0C701B0
:1006E000B8010E944A0501C08FEF6896E6E00C94BD
:1006F000362CA8E1B0E0EFE7F3E00C941A2C698304
:100700007A838B839C832D833E834F83588789E034
:10071000E82EF12CEC0EFD1ECE010196B7010E94D1
:10072000D2048E010F5E1F4FCE010596B8010E94C4
:10073000D2048985823040F08989823028F0C7014F
:10074000B8010E944A0501C081E06896E6E00C9479
:10075000362CACE0B0E0EFEAF3E00C941E2C698399
:100760007A838B839C83CE010196BE016B5F7F4FA2
:100770000E94D2048D81823061F1823050F1843048
:1007800021F48E81882351F12EC02F81388537FDC9
:1007900020C06E812F3131051CF06623F9F023C093
:1007A0008EE190E0821B930B29853A854B855C8511
:1007B00004C056954795379527958A95D2F76623B5
:1007C000B1F050954095309521953F4F4F4F5F4F79
:1007D0000EC020E030E040E050E009C02FEF3FEFD6
:1007E0004FEF5FE704C020E030E040E050E8B9019F
:1007F000CA012C96E2E00C943A2CDF92EF92FF9221
:100800000F931F93FC01E480F58006811781D1804E
:100810008081823048F480E090E0A0E1B0E0E82AF6
:10082000F92A0A2B1B2BA5C0843009F49FC0823003
:1008300021F4EE24FF24870105C0E114F104010531
:10084000110519F4E0E0F0E096C0628173819FEF3A
:10085000623879070CF05BC022E83FEF261B370BAC
:100860002A3131052CF020E030E040E050E02AC091
:10087000B801A701022E04C0769567955795479554
:100880000A94D2F781E090E0A0E0B0E004C0880FC5
:10089000991FAA1FBB1F2A95D2F70197A109B10979
:1008A0008E219F21A023B1230097A105B10521F03E
:1008B00081E090E0A0E0B0E09A01AB01282B392B59
:1008C0004A2B5B2BDA01C9018F779070A070B07052
:1008D00080349105A105B10539F427FF09C0205CDA
:1008E0003F4F4F4F5F4F04C0215C3F4F4F4F5F4F13
:1008F000E0E0F0E02030A0E03A07A0E04A07A0E402
:100900005A0710F0E1E0F0E079018A0127C0603871
:10091000710564F5FB01E158FF4FD801C7018F77DE
:100920009070A070B07080349105A105B10539F4C4
:10093000E7FE0DC080E490E0A0E0B0E004C08FE3EB
:1009400090E0A0E0B0E0E80EF91E0A1F1B1F17FFA1
:1009500005C016950795F794E794319687E01695AC
:100960000795F794E7948A95D1F705C0EE24FF2404
:100970008701EFEFF0E06E2F679566276795902F60
:100980009F77D794DD24D7948E2F8695492F462BB9
:10099000582F5D29B701CA011F910F91FF90EF9069
:1009A000DF900895FC01DB01408151812281622F9B
:1009B0006F7770E0221F2227221F9381892F880FD3
:1009C000822B282F30E0991F9927991F11969C930D
:1009D000119721153105A9F54115510561057105DD
:1009E00011F482E037C082E89FEF13969C938E93B8
:1009F00012979A01AB0167E0220F331F441F551F66
:100A00006A95D1F783E08C930DC0220F331F441FEA
:100A1000551F12968D919C911397019713969C9355
:100A20008E931297203080E0380780E0480780E4FA
:100A3000580758F314962D933D934D935C93179755
:100A400008952F3F310579F4411551056105710570
:100A500019F484E08C93089564FF03C081E08C93C3
:100A600012C01C9210C02F57304013963C932E9307
:100A7000129783E08C9387E0440F551F661F771F02
:100A80008A95D1F7706414964D935D936D937C9322
:100A9000179708951F93DC01FB019C91923008F495
:100AA00047C08081823008F443C0943051F41196DD
:100AB0001C91843099F58181682F70E0611B710968
:100AC0003FC0843021F0923031F48230B9F181811D
:100AD000882389F12DC011961C9111978230F1F075
:100AE00081811817D9F412962D913C911397828128
:100AF00093818217930794F028173907BCF0149656
:100B00008D919D910D90BC91A02D248135814681C0
:100B10005781281739074A075B0718F4112341F05A
:100B20000AC082179307A407B50740F4112319F0F0
:100B300061E070E005C06FEF7FEF02C060E070E041
:100B4000CB011F910895DF93CF9300D0CDB7DEB7CF
:100B5000A0E4B0E0E0E4F0E080818F778C931A822B
:100B6000198283E390E09A838983E9E2F0E0898146
:100B70008083E0E4F0E089819A81892F992780833E
:100B8000A0E4B0E0E0E4F0E0808180688C93A0E431
:100B9000B0E0E0E4F0E080818F7B8C93A0E4B0E0F3
:100BA000E0E4F0E080818F7E8C93A0E4B0E0E0E4AC
:100BB000F0E080818F7D8C93A0E4B0E0E0E4F0E091
:100BC0008081877F8C93A0E4B0E0E0E4F0E0808156
:100BD00082608C93A0E4B0E0E0E4F0E08081846087
:100BE0008C93AAE2B0E0EAE2F0E080818B7F8C9304
:100BF000AAE2B0E0EAE2F0E0808188608C93AAE2A9
:100C0000B0E0EAE2F0E0808180618C930F900F9079
:100C1000CF91DF910895DF93CF930F92CDB7DEB7D9
:100C20008983EBE2F0E08081882F90E08072907001
:100C30000097B9F3ECE2F0E089818083ABE2B0E0A9
:100C4000EBE2F0E0808180648C930F90CF91DF9194
:100C50000895DF93CF9300D0CDB7DEB79A83898311
:100C6000EBE2F0E080818823DCF7ECE2F0E08081C9
:100C7000E981FA8180830F900F90CF91DF910895E1
:100C8000DF93CF9300D00F92CDB7DEB789837B83FC
:100C90006A83AAE2B0E0EAE2F0E0808180628C93AD
:100CA000AAE2B0E0EAE2F0E0808180648C9389817E
:100CB000809328028A819B81909327028093260249
:100CC0000F900F900F90CF91DF910895DF93CF9306
:100CD00000D0CDB7DEB79A838983AAE2B0E0EAE21A
:100CE000F0E0808180688C9389819A8190932A02B8
:100CF000809329020F900F90CF91DF9108951F925A
:100D00000F920FB60F9211248F93AF93BF93EF936F
:100D1000FF93DF93CF93CDB7DEB7E0912902F09137
:100D20002A02ACE2B0E08C918083CF91DF91FF91F9
:100D3000EF91BF91AF918F910F900FBE0F901F90C9
:100D400018951F920F920FB60F9211248F93EF9365
:100D5000FF93DF93CF93CDB7DEB7ECE2F0E0809165
:100D600028028083CF91DF91FF91EF918F910F90B7
:100D70000FBE0F901F9018951F920F920FB60F92F3
:100D800011242F933F934F935F936F937F938F9390
:100D90009F93AF93BF93EF93FF93DF93CF93CDB721
:100DA000DEB7E0912602F09127020995CF91DF91FD
:100DB000FF91EF91BF91AF919F918F917F916F9133
:100DC0005F914F913F912F910F900FBE0F901F9009
:100DD0001895DF93CF93CDB7DEB7AFE4B0E0EFE483
:100DE000F0E080818E7F8C93AFE4B0E0EFE4F0E040
:100DF000808182608C93AEE4B0E0EEE4F0E080812C
:100E000088608C93AEE4B0E0EEE4F0E08081806135
:100E10008C93AFE4B0E0EFE4F0E080818F7B8C93C3
:100E2000AFE4B0E0EFE4F0E0808180688C93AFE461
:100E3000B0E0EFE4F0E080818F7E8C93AFE4B0E02F
:100E4000EFE4F0E080818F7D8C93AEE4B0E0EEE4DF
:100E5000F0E08081887F8C93AEE4B0E0EEE4F0E0D7
:100E600080818E7F8C93AEE4B0E0EEE4F0E0808190
:100E700082608C93AEE4B0E0EEE4F0E080818B7FA2
:100E80008C93CF91DF910895DF93CF9300D0CDB7AE
:100E9000DEB79A83898389819A8190932C0280930B
:100EA0002B020F900F90CF91DF910895DF93CF9396
:100EB00000D0CDB7DEB79A83898389819A819093D8
:100EC0002E0280932D020F900F90CF91DF91089505
:100ED000DF93CF9300D0CDB7DEB79A8389830F908D
:100EE0000F90CF91DF910895DF93CF9300D0CDB7CE
:100EF000DEB79A838983EAE4F0E089819A8191835D
:100F0000808389819A8190933202809331020F907D
:100F10000F90CF91DF910895DF93CF9300D0CDB79D
:100F2000DEB79A838983E8E4F0E089819A8191832E
:100F3000808389819A8190933402809333020F9049
:100F40000F90CF91DF910895DF93CF9300D000D021
:100F5000CDB7DEB79A8389837C836B8389819A813D
:100F60000E947407E6E4F0E08B819C81918380838A
:100F70000F900F900F900F90CF91DF910895DF9316
:100F8000CF9300D000D0CDB7DEB79A8389837C831E
:100F90006B8389819A810E948C07E6E4F0E08B8163
:100FA0009C81918380830F900F900F900F90CF9131
:100FB000DF910895DF93CF93CDB7DEB7A3E5B0E01F
:100FC000E3E5F0E080818F7B8C93A3E5B0E0E3E57F
:100FD000F0E0808188608C93A9E5B0E0E9E5F0E07D
:100FE000808182608C93A3E5B0E0E3E5F0E080814E
:100FF000887F8C93A3E5B0E0E3E5F0E080818E7F0D
:101000008C93A3E5B0E0E3E5F0E0808182608C930F
:10101000A3E5B0E0E3E5F0E080818B7F8C93CF9196
:10102000DF910895DF93CF9300D0CDB7DEB79A83D9
:10103000898389819A8190933602809335020F903B
:101040000F90CF91DF910895DF93CF9300D0CDB76C
:10105000DEB79A83898389819A819093380280933D
:1010600037020F900F90CF91DF910895DF93CF93C8
:101070000F92CDB7DEB789830F90CF91DF9108959E
:10108000DF93CF930F92CDB7DEB78983ECE5F0E025
:10109000898180838981882F90E090933C0280939E
:1010A0003B020F90CF91DF910895DF93CF9300D053
:1010B00000D000D0CDB7DEB79A8389834B835C83A1
:1010C0006D837E8388EC0E94400889819A810E940A
:1010D00024088B819C81AD81BE8180933D029093D9
:1010E0003E02A0933F02B093400226960FB6F894BA
:1010F000DEBF0FBECDBFCF91DF910895DF93CF93B9
:10110000CDB7DEB72D970FB6F894DEBF0FBECDBFBB
:101110006A877B878C879D87A9E5B0E0E9E5F0E0E9
:1011200080818D7F8C931E821F821886198688ECA1
:101130000E9440088A859B85AC85BD8528EE33E0FA
:1011400040E050E0BC01CD010E94CD2BDC01CB0181
:1011500028EC30E040E050E0BC01CD010E94EC2BD7
:10116000DA01C9018E839F83A887B9871A821B82FF
:101170001C821D821A821B821C821D8220C0E8E50F
:10118000F0E080818270898305C0E8E5F0E080812D
:101190008270898389818823C1F3A8E5B0E0E8E5FE
:1011A000F0E0808182608C938A819B81AC81BD81DB
:1011B0000196A11DB11D8A839B83AC83BD832A81C7
:1011C0003B814C815D818E819F81A885B9852817DF
:1011D00039074A075B0798F2A9E5B0E0E9E5F0E0D6
:1011E000808182608C932D960FB6F894DEBF0FBE7F
:1011F000CDBFCF91DF910895DF93CF930F92CDB7FD
:10120000DEB7898389810E9440080F90CF91DF91DA
:1012100008951F920F920FB60F9211242F933F93B0
:101220004F935F936F937F938F939F93AF93BF93EE
:10123000EF93FF93DF93CF93CDB7DEB78091410259
:1012400090914202019690934202809341028091D4
:101250004102909142022FE083349207B1F48091D1
:10126000350290913602009729F0E0913502F09115
:10127000360209951092420210924102E2E5F0E036
:101280008091390290913A028083CF91DF91FF9152
:10129000EF91BF91AF919F918F917F916F915F91EE
:1012A0004F913F912F910F900FBE0F901F90189567
:1012B0001F920F920FB60F9211242F933F934F93CB
:1012C0005F936F937F938F939F93AF93BF93EF93AE
:1012D000FF93DF93CF9300D000D0CDB7DEB7198254
:1012E0001A821B821C8280913D0290913E02A09145
:1012F0003F02B091400228EE33E040E050E0BC01F4
:10130000CD010E94CD2BDC01CB0128EC30E040E088
:1013100050E0BC01CD010E94EC2BDA01C9018983A8
:101320009A83AB83BC8380914302909144020196DF
:10133000909344028093430280913D0290913E023B
:10134000A0913F02B09140020097A105B105F9F4C8
:10135000809143029091440223E188389207E9F595
:101360008091370290913802009729F0E09137027E
:10137000F091380209951092440210924302ECE574
:10138000F0E080913B0290913C02808326C08091E6
:101390004302909144029C0140E050E089819A818F
:1013A000AB81BC81281739074A075B07B1F48091EC
:1013B000370290913802009729F0E0913702F091BE
:1013C000380209951092440210924302ECE5F0E0D5
:1013D00080913B0290913C0280830F900F900F9080
:1013E0000F90CF91DF91FF91EF91BF91AF919F91BE
:1013F0008F917F916F915F914F913F912F910F90BE
:101400000FBE0F901F901895DF93CF93CDB7DEB727
:1014100081E065E041E00E94F11181E066E040E09A
:101420000E94F11181E067E041E00E94F11181E04A
:1014300064E040E00E94F111ADE2B0E0EDE2F0E0E6
:10144000808180618C93ADE2B0E0EDE2F0E08081DC
:101450008F7D8C93ADE2B0E0EDE2F0E08081877F9C
:101460008C93ADE2B0E0EDE2F0E080818B7F8C9375
:10147000ADE2B0E0EDE2F0E0808181608C93ADE21E
:10148000B0E0EDE2F0E080818D7F8C93AEE2B0E0E1
:10149000EEE2F0E080818E7F8C93ADE2B0E0EDE291
:1014A000F0E0808180648C93CF91DF910895DF9389
:1014B000CF93CDB7DEB781E065E040E00E94F11147
:1014C00081E066E041E00E94F11181E067E040E0E8
:1014D0000E94F11181E064E040E00E94F11181E09E
:1014E00064E040E00E948A13ADE2B0E0EDE2F0E09B
:1014F00080818F7E8C93ADE2B0E0EDE2F0E0808100
:101500008F7D8C93ADE2B0E0EDE2F0E08081877FEB
:101510008C93ADE2B0E0EDE2F0E080818B7F8C93C4
:10152000ADE2B0E0EDE2F0E0808180648C93CF9199
:10153000DF910895DF93CF930F92CDB7DEB7898304
:10154000EFE2F0E089818083EEE2F0E080818823A1
:10155000DCF7AEE2B0E0EEE2F0E0808180688C93F0
:10156000EFE2F0E080810F90CF91DF910895DF935B
:10157000CF930F92CDB7DEB78983EFE2F0E0898198
:101580008083EEE2F0E080818823DCF7AEE2B0E019
:10159000EEE2F0E0808180688C930F90CF91DF9134
:1015A0000895DF93CF93CDB7DEB7EFE2F0E080810F
:1015B000CF91DF910895DF93CF9300D000D00F92A9
:1015C000CDB7DEB79B838A837D836C83198227C066
:1015D000AFE2B0E08981282F30E08A819B81FC0155
:1015E000E20FF31F80818C93EEE2F0E0808188238C
:1015F000DCF7AEE2B0E0EEE2F0E0808180688C9350
:101600008981282F30E08C819D81DC01A20FB31FDE
:10161000EFE2F0E080818C9389818F5F89838981FB
:10162000282F30E08A819B81FC01E20FF31F80812B
:10163000882371F60F900F900F900F900F90CF911D
:10164000DF910895DF93CF930F92CDB7DEB78983F3
:10165000ADE2B0E0EDE2F0E0808180688C93EFE2F3
:10166000F0E0898180830F90CF91DF910895DF931F
:10167000CF9300D0CDB7DEB79A83898389819A81D1
:1016800090934602809345020F900F90CF91DF9187
:1016900008951F920F920FB60F9211242F933F932C
:1016A0004F935F936F937F938F939F93AF93BF936A
:1016B000EF93FF93DF93CF9300D00F92CDB7DEB7B8
:1016C000EFE2F0E080818B83CE0103969A838983D9
:1016D000E0914502F091460289819A810995ADE237
:1016E000B0E0EDE2F0E080818F778C930F900F9067
:1016F0000F90CF91DF91FF91EF91BF91AF919F91AB
:101700008F917F916F915F914F913F912F910F90AA
:101710000FBE0F901F901895DF93CF93CDB7DEB714
:101720000E94E906AFE4B0E0EFE4F0E080818E7F54
:101730008C93AFE4B0E0EFE4F0E080818D7F8C9398
:10174000AEE4B0E0EEE4F0E08081877F8C93AEE41D
:10175000B0E0EEE4F0E080818F7E8C93AEE4B0E008
:10176000EEE4F0E08081887F8C93AEE4B0E0EEE4BC
:10177000F0E080818E7F8C93AEE4B0E0EEE4F0E0A8
:10178000808182608C93AEE4B0E0EEE4F0E0808192
:101790008B7F8C9381E00E94E50BA9E5B0E0E9E541
:1017A000F0E0808180628C93CF91DF910895DF9388
:1017B000CF93CDB7DEB7A9E5B0E0E9E5F0E08081F1
:1017C0008F7D8C93CF91DF910895DF93CF9300D0DD
:1017D0000F92CDB7DEB789838981282F30E03B8314
:1017E0002A838A819B81009731F02A813B812130B5
:1017F000310549F00FC0AEE4B0E0EEE4F0E08081E6
:101800008F7B8C9307C0AEE4B0E0EEE4F0E0808123
:1018100080648C930F900F900F90CF91DF9108957B
:10182000DF93CF93CDB7DEB7E6E4F0E0808191811E
:10183000CF91DF910895DF93CF9300D0CDB7DEB77E
:101840009A83898389819A81909348028093470281
:101850000F900F90CF91DF9108951F920F920FB6C6
:101860000F9211242F933F934F935F936F937F9326
:101870008F939F93AF93BF93EF93FF93DF93CF9398
:10188000CDB7DEB78091470290914802009729F0CA
:10189000E0914702F09148020995CF91DF91FF91C5
:1018A000EF91BF91AF919F918F917F916F915F91D8
:1018B0004F913F912F910F900FBE0F901F90189551
:1018C000DF93CF930F92CDB7DEB789830E949C0F31
:1018D000E0E2F0E082E08083A1E2B0E0E1E2F0E06B
:1018E00080818E7F8C93A1E2B0E0E1E2F0E0808124
:1018F0008D7F8C938981882329F0E2E2F0E0898151
:10190000880F8083A6E5B0E0E6E5F0E080818460A2
:101910008C930F90CF91DF910895DF93CF930F9227
:10192000CDB7DEB71982A6E5B0E0E6E5F0E080814C
:1019300080628C93A6E5B0E0E6E5F0E08081806807
:101940008C93E6E5F0E080818823DCF7E1E2F0E0CB
:101950008081882F90E0887F90708830910511F009
:1019600081E0898389810F90CF91DF910895DF9382
:10197000CF930F92CDB7DEB71982A6E5B0E0E6E5CA
:10198000F0E0808180628C93A6E5B0E0E6E5F0E0CF
:10199000808180688C93E6E5F0E080818823DCF725
:1019A000E1E2F0E08081882F90E0887F90708031C4
:1019B000910511F082E0898389810F90CF91DF91A9
:1019C0000895DF93CF9300D0CDB7DEB78A83198215
:1019D000E3E2F0E08A81880F8083A3E2B0E0E3E2F3
:1019E000F0E080818E7F8C93A6E5B0E0E6E5F0E044
:1019F00080818F7D8C93A6E5B0E0E6E5F0E0808104
:101A000080688C93E6E5F0E080818823DCF7E1E2F2
:101A1000F0E08081882F90E0887F90708831910578
:101A200011F083E0898389810F900F90CF91DF912E
:101A30000895DF93CF9300D0CDB7DEB78A831982A4
:101A40000E94AA0FE3E2F0E08A81880F8083A3E27C
:101A5000B0E0E3E2F0E080818E7F8C93A6E5B0E019
:101A6000E6E5F0E080818F7D8C93A6E5B0E0E6E5C9
:101A7000F0E0808180688C93E6E5F0E08081882347
:101A8000DCF7E1E2F0E08081882F90E0887F9070C1
:101A90008032910511F084E0898389810F900F9045
:101AA000CF91DF910895DF93CF9300D0CDB7DEB70C
:101AB0008A831982E3E2F0E08A81880F8083A3E2BF
:101AC000B0E0E3E2F0E0808181608C93A6E5B0E0D5
:101AD000E6E5F0E080818F7D8C93A6E5B0E0E6E559
:101AE000F0E0808180688C93E6E5F0E080818823D7
:101AF000DCF7E1E2F0E08081882F90E0887F907051
:101B00008034910511F085E0898389810F900F90D1
:101B1000CF91DF910895DF93CF9300D0CDB7DEB79B
:101B20008A8319820E94AA0FE3E2F0E08A81880F7B
:101B30008083A3E2B0E0E3E2F0E0808181608C93F7
:101B4000A6E5B0E0E6E5F0E080818F7D8C93A6E528
:101B5000B0E0E6E5F0E0808180688C93E6E5F0E0B7
:101B600080818823DCF7E1E2F0E08081882F90E03B
:101B7000887F90708834910511F086E0898389818F
:101B80000F900F90CF91DF910895DF93CF9300D006
:101B9000CDB7DEB78A831982E3E2F0E08A818083E1
:101BA000A6E5B0E0E6E5F0E0808180688C93E6E5AC
:101BB000F0E080818823DCF7E1E2F0E08081882F8B
:101BC00090E0887F90708832910511F087E08983DA
:101BD00089810F900F90CF91DF910895DF93CF937C
:101BE00000D0CDB7DEB78A8319820E94AA0FE3E244
:101BF000F0E08A818083A6E5B0E0E6E5F0E0808150
:101C000080688C93E6E5F0E080818823DCF7E1E2F0
:101C1000F0E08081882F90E0887F9070803391057C
:101C200011F088E0898389810F900F90CF91DF9127
:101C30000895DF93CF9300D00F92CDB7DEB79B838B
:101C40008A831982A6E5B0E0E6E5F0E0808180684D
:101C50008C93E6E5F0E080818823DCF7E1E2F0E0B8
:101C60008081882F90E0887F90708035910511F0F9
:101C700089E08983E3E2F0E08081EA81FB8180836F
:101C800089810F900F900F90CF91DF910895DF938E
:101C9000CF9300D00F92CDB7DEB79B838A83198292
:101CA0000E94AA0FA6E5B0E0E6E5F0E0808180683A
:101CB0008C93E6E5F0E080818823DCF7E1E2F0E058
:101CC0008081882F90E0887F90708835910511F091
:101CD0008AE08983E3E2F0E08081EA81FB8180830E
:101CE00089810F900F900F90CF91DF910895DF932E
:101CF000CF93CDB7DEB7A6E5B0E0E6E5F0E08081B2
:101D000080618C93A6E5B0E0E6E5F0E08081806834
:101D10008C93CF91DF910895DF93CF930F92CDB73E
:101D2000DEB78983E2E2F0E08981880F80830E9438
:101D30009C0FA6E5B0E0E6E5F0E0808184608C933E
:101D40000F90CF91DF910895DF93CF930F92CDB78E
:101D5000DEB71982A6E5B0E0E6E5F0E080818068B4
:101D60008C93E6E5F0E080818823DCF7E1E2F0E0A7
:101D70008081882F90E0887F90708036910511F0E7
:101D80008BE0898389810F90CF91DF910895DF9354
:101D9000CF930F92CDB7DEB71982A6E5B0E0E6E5A6
:101DA000F0E0808180688C93E6E5F0E08081882314
:101DB000DCF7E1E2F0E08081882F90E0887F90708E
:101DC000883A910511F08CE0898389810F90CF9139
:101DD000DF910895DF93CF9300D00F92CDB7DEB798
:101DE0009B838A831982A6E5B0E0E6E5F0E0808176
:101DF00080688C93E6E5F0E080818823DCF7E1E2FF
:101E0000F0E08081882F90E0887F90708038910585
:101E100011F08DE08983E3E2F0E08081EA81FB81CB
:101E2000808389810F900F900F90CF91DF9108955B
:101E3000DF93CF9300D00F92CDB7DEB79B838A8319
:101E400019820E94AA0FA6E5B0E0E6E5F0E08081E5
:101E500080688C93E6E5F0E080818823DCF7E1E29E
:101E6000F0E08081882F90E0887F9070883891051D
:101E700011F08EE08983E3E2F0E08081EA81FB816A
:101E8000808389810F900F900F90CF91DF910895FB
:101E9000DF93CF9300D0CDB7DEB78A831982E3E218
:101EA000F0E08A818083A6E5B0E0E6E5F0E080819D
:101EB00080688C93E6E5F0E080818823DCF7E1E23E
:101EC000F0E08081882F90E0887F9070883B9105BA
:101ED00011F08FE0898389810F900F90CF91DF916E
:101EE0000895DF93CF9300D0CDB7DEB78A831982F0
:101EF0000E94AA0FE3E2F0E08A818083A6E5B0E0C9
:101F0000E6E5F0E0808180688C93E6E5F0E0808192
:101F10008823DCF7E1E2F0E08081882F90E0887F81
:101F20009070803C910511F080E1898389810F9048
:101F30000F90CF91DF910895DF93CF93CDB7DEB7A8
:101F4000A6E5B0E0E6E5F0E0808180648C93CF9177
:101F5000DF910895DF93CF93CDB7DEB7A6E5B0E06C
:101F6000E6E5F0E080818F7B8C93CF91DF9108953F
:101F7000DF93CF93CDB7DEB7AFE5B0E0EFE5F0E0AC
:101F8000808180688C93CF91DF910895DF93CF9308
:101F9000CDB7DEB7AFE5B0E0EFE5F0E080818F7759
:101FA0008C93CF91DF910895DF93CF93CDB7DEB7B8
:101FB0002A970FB6F894DEBF0FBECDBF89836A8320
:101FC0008981282F30E03A87298789859A85813051
:101FD000910509F46DC029853A852230310509F44F
:101FE000C9C089859A85009709F0E9C0ABE5B0E0E2
:101FF000EBE5F0E0808180648C938A81282F30E0CB
:1020000038872F838F8198858130910521F12F8129
:102010003885223031052CF48F819885009761F046
:10202000CEC02F8138852230310521F18F819885EE
:102030008330910571F1C3C0A5E5B0E0E5E5F0E0BE
:10204000808182608C93A5E5B0E0E5E5F0E08081D9
:102050008E7F8C93B4C0A5E5B0E0E5E5F0E080812B
:1020600082608C93A5E5B0E0E5E5F0E080818160D9
:102070008C93A5C0A5E5B0E0E5E5F0E080818D7F1B
:102080008C93A5E5B0E0E5E5F0E080818E7F8C9350
:1020900096C0A5E5B0E0E5E5F0E080818D7F8C930A
:1020A000A5E5B0E0E5E5F0E0808181608C9387C034
:1020B000ABE5B0E0EBE5F0E0808180688C938A814D
:1020C000282F30E03E832D838D819E8181309105C4
:1020D00021F12D813E81223031052CF48D819E81AC
:1020E000009761F06CC02D813E812230310521F1D5
:1020F0008D819E818330910571F161C0A5E5B0E0CD
:10210000E5E5F0E0808188608C93A5E5B0E0E5E549
:10211000F0E080818B7F8C9352C0A5E5B0E0E5E5CF
:10212000F0E0808188608C93A5E5B0E0E5E5F0E023
:10213000808184608C9343C0A5E5B0E0E5E5F0E0E4
:102140008081877F8C93A5E5B0E0E5E5F0E08081B4
:102150008B7F8C9334C0A5E5B0E0E5E5F0E08081AD
:10216000877F8C93A5E5B0E0E5E5F0E080818460B1
:102170008C9325C0ABE5B0E0EBE5F0E080818062B8
:102180008C938A81282F30E03C832B838B819C8128
:10219000009731F02B813C812130310549F00FC08F
:1021A000A4E5B0E0E4E5F0E080818F7B8C9307C08C
:1021B000A4E5B0E0E4E5F0E0808180648C932A96A9
:1021C0000FB6F894DEBF0FBECDBFCF91DF9108955B
:1021D000DF93CF9300D00F92CDB7DEB7898389818B
:1021E000282F30E03B832A838A819B8181309105AF
:1021F00089F02A813B8122303105A1F08A819B81BF
:102200000097B9F4ABE5B0E0EBE5F0E080818F7BBF
:102210008C930FC0ABE5B0E0EBE5F0E080818F7709
:102220008C9307C0ABE5B0E0EBE5F0E080818F7DFB
:102230008C930F900F900F90CF91DF910895DF93C3
:10224000CF9300D000D00F92CDB7DEB789837B83C8
:102250006A838981282F30E03D832C838C819D8186
:102260008130910581F02C813D812230310591F042
:102270008C819D810097A1F48A819B8190934A0271
:10228000809349020DC08A819B8190934C02809378
:102290004B0206C08A819B8190934E0280934D022F
:1022A0000F900F900F900F900F90CF91DF910895A6
:1022B0001F920F920FB60F9211242F933F934F93BB
:1022C0005F936F937F938F939F93AF93BF93EF939E
:1022D000FF93DF93CF93CDB7DEB780914902909102
:1022E0004A02009729F0E0914902F0914A020995CB
:1022F000CF91DF91FF91EF91BF91AF919F918F911E
:102300007F916F915F914F913F912F910F900FBEF1
:102310000F901F9018951F920F920FB60F921124D5
:102320002F933F934F935F936F937F938F939F93DD
:10233000AF93BF93EF93FF93DF93CF93CDB7DEB708
:1023400080914B0290914C02009729F0E0914B0252
:10235000F0914C020995CF91DF91FF91EF91BF91E0
:10236000AF919F918F917F916F915F914F913F912D
:102370002F910F900FBE0F901F9018951F920F92E4
:102380000FB60F9211242F933F934F935F936F9348
:102390007F938F939F93AF93BF93EF93FF93DF93BD
:1023A000CF93CDB7DEB780914D0290914E0200974A
:1023B00029F0E0914D02F0914E020995CF91DF9105
:1023C000FF91EF91BF91AF919F918F917F916F910D
:1023D0005F914F913F912F910F900FBE0F901F90E3
:1023E0001895DF93CF93CDB7DEB729970FB6F89442
:1023F000DEBF0FBECDBF89836A834B838981843062
:1024000008F0F6C08A81883008F0F2C08B81282F4E
:1024100030E03987288788859985009739F02885A5
:1024200039852130310509F475C0E2C08981282F32
:1024300030E03F832E838E819F818130910559F159
:102440002E813F81223031052CF48E819F810097AF
:1024500069F0CEC02E813F812230310589F18E8115
:102460009F818330910509F440C0C2C0AAE3B0E067
:10247000EAE3F0E08081482F8A81282F30E081E074
:1024800090E0022E02C0880F991F0A94E2F780950F
:1024900084238C93ADC0A7E3B0E0E7E3F0E0808154
:1024A000482F8A81282F30E081E090E0022E02C080
:1024B000880F991F0A94E2F7809584238C9398C023
:1024C000A4E3B0E0E4E3F0E08081482F8A81282F84
:1024D00030E081E090E0022E02C0880F991F0A943C
:1024E000E2F7809584238C9383C0A1E3B0E0E1E31D
:1024F000F0E08081482F8A81282F30E081E090E051
:10250000022E02C0880F991F0A94E2F78095842357
:102510008C936EC08981282F30E03D832C838C8181
:102520009D818130910549F12C813D812230310519
:102530002CF48C819D81009761F05AC02C813D81E3
:102540002230310571F18C819D8183309105E9F153
:102550004FC0AAE3B0E0EAE3F0E08081482F8A812F
:10256000282F30E081E090E0022E02C0880F991FF2
:102570000A94E2F7842B8C933BC0A7E3B0E0E7E337
:10258000F0E08081482F8A81282F30E081E090E0C0
:10259000022E02C0880F991F0A94E2F7842B8C93B5
:1025A00027C0A4E3B0E0E4E3F0E08081482F8A8113
:1025B000282F30E081E090E0022E02C0880F991FA2
:1025C0000A94E2F7842B8C9313C0A1E3B0E0E1E31B
:1025D000F0E08081482F8A81282F30E081E090E070
:1025E000022E02C0880F991F0A94E2F7842B8C9365
:1025F00029960FB6F894DEBF0FBECDBFCF91DF9105
:102600000895DF93CF93CDB7DEB728970FB6F89430
:10261000DEBF0FBECDBF89836A838981843008F015
:1026200070C08A81282F30E038872F838F8198856A
:10263000009731F02F8138852130310581F161C05B
:102640008981282F30E03E832D838D819E818130CA
:102650009105C9F02D813E81223031052CF48D8108
:102660009E81009761F04DC02D813E812230310561
:1026700071F08D819E818330910569F042C0EAE35B
:10268000F0E010823EC0E7E3F0E010823AC0E4E3FD
:10269000F0E0108236C0E1E3F0E0108232C08981C0
:1026A000282F30E03C832B838B819C8181309105E6
:1026B000D1F02B813C81223031052CF48B819C811F
:1026C000009761F01EC02B813C812230310581F0E2
:1026D0008B819C818330910581F013C0EAE3F0E0A7
:1026E0008FEF80830EC0E7E3F0E08FEF808309C0B7
:1026F000E4E3F0E08FEF808304C0E1E3F0E08FEFEC
:10270000808328960FB6F894DEBF0FBECDBFCF9161
:10271000DF910895DF93CF93CDB7DEB729970FB63A
:10272000F894DEBF0FBECDBF89836A834B83898156
:10273000843008F0F6C08A81883008F0F2C08B81BE
:10274000282F30E03987288788859985009739F0C8
:10275000288539852130310509F475C0E2C08981A9
:10276000282F30E03F832E838E819F818130910519
:1027700059F12E813F81223031052CF48E819F81C9
:10278000009769F0CEC02E813F812230310589F15A
:102790008E819F818330910509F440C0C2C0ABE3B4
:1027A000B0E0EBE3F0E08081482F8A81282F30E011
:1027B00081E090E0022E02C0880F991F0A94E2F790
:1027C000809584238C93ADC0A8E3B0E0E8E3F0E00B
:1027D0008081482F8A81282F30E081E090E0022E0E
:1027E00002C0880F991F0A94E2F7809584238C9386
:1027F00098C0A5E3B0E0E5E3F0E08081482F8A814E
:10280000282F30E081E090E0022E02C0880F991F4F
:102810000A94E2F7809584238C9383C0A2E3B0E00E
:10282000E2E3F0E08081482F8A81282F30E081E0C8
:1028300090E0022E02C0880F991F0A94E2F780955B
:1028400084238C936EC08981282F30E03D832C83B4
:102850008C819D818130910549F12C813D8122300F
:1028600031052CF48C819D81009761F05AC02C8138
:102870003D812230310571F18C819D81833091053C
:10288000E9F14FC0ABE3B0E0EBE3F0E08081482F2B
:102890008A81282F30E081E090E0022E02C0880F6C
:1028A000991F0A94E2F7842B8C933BC0A8E3B0E015
:1028B000E8E3F0E08081482F8A81282F30E081E032
:1028C00090E0022E02C0880F991F0A94E2F7842B31
:1028D0008C9327C0A5E3B0E0E5E3F0E08081482FCA
:1028E0008A81282F30E081E090E0022E02C0880F1C
:1028F000991F0A94E2F7842B8C9313C0A2E3B0E0F3
:10290000E2E3F0E08081482F8A81282F30E081E0E7
:1029100090E0022E02C0880F991F0A94E2F7842BE0
:102920008C9329960FB6F894DEBF0FBECDBFCF9122
:10293000DF910895DF93CF9300D000D0CDB7DEB7FD
:1029400089836A838981843090F58981282F30E0DA
:102950003C832B838B819C8181309105D1F02B812D
:102960003C81223031052CF48B819C81009761F0F1
:102970001EC02B813C812230310581F08B819C81EE
:102980008330910581F013C0EBE3F0E08A8180830E
:102990000EC0E8E3F0E08A81808309C0E5E3F0E05F
:1029A0008A81808304C0E2E3F0E08A8180830F9013
:1029B0000F900F900F90CF91DF910895DF93CF93F9
:1029C00000D000D00F92CDB7DEB78A836B838A81A7
:1029D000843008F06AC08B81883008F066C08A8134
:1029E000282F30E03D832C838C819D81813091059F
:1029F00039F12C813D81223031052CF48C819D816F
:102A0000009761F052C02C813D812230310551F197
:102A10008C819D8183309105B9F147C0E9E3F0E0F5
:102A20008081482F8B81282F30E081E090E0022EBA
:102A300002C0880F991F0A94E2F78423898335C066
:102A4000E6E3F0E08081482F8B81282F30E081E0A1
:102A500090E0022E02C0880F991F0A94E2F78423A7
:102A6000898323C0E3E3F0E08081482F8B81282F06
:102A700030E081E090E0022E02C0880F991F0A9496
:102A8000E2F78423898311C0E0E3F0E08081482FDE
:102A90008B81282F30E081E090E0022E02C0880F69
:102AA000991F0A94E2F78423898389810F900F90FC
:102AB0000F900F900F90CF91DF910895DF93CF93F8
:102AC00000D000D0CDB7DEB78A838A81843090F5FC
:102AD0008A81282F30E03C832B838B819C8181303D
:102AE0009105D1F02B813C81223031052CF48B8172
:102AF0009C81009761F01EC02B813C812230310502
:102B000081F08B819C818330910581F013C0E9E3D2
:102B1000F0E0808189830EC0E6E3F0E08081898364
:102B200009C0E3E3F0E08081898304C0E0E3F0E0E2
:102B30008081898389810F900F900F900F90CF91A2
:102B4000DF910895DF93CF9300D000D0CDB7DEB7EB
:102B500089836A838981843008F072C08A818830D1
:102B600008F06EC08981282F30E03C832B838B8155
:102B70009C818130910549F12B813C8122303105C6
:102B80002CF48B819C81009761F05AC02B813C8191
:102B90002230310571F18B819C8183309105E9F1FF
:102BA0004FC0ABE3B0E0EBE3F0E08081482F8A81D7
:102BB000282F30E081E090E0022E02C0880F991F9C
:102BC0000A94E2F784278C933BC0A8E3B0E0E8E3E3
:102BD000F0E08081482F8A81282F30E081E090E06A
:102BE000022E02C0880F991F0A94E2F784278C9363
:102BF00027C0A5E3B0E0E5E3F0E08081482F8A81BB
:102C0000282F30E081E090E0022E02C0880F991F4B
:102C10000A94E2F784278C9313C0A2E3B0E0E2E3C6
:102C2000F0E08081482F8A81282F30E081E090E019
:102C3000022E02C0880F991F0A94E2F784278C9312
:102C40000F900F900F900F90CF91DF910895DF9329
:102C5000CF9300D00F92CDB7DEB7898389818430BE
:102C600008F03EC08981282F30E03B832A838A8187
:102C70009B8181309105E9F02A813B812230310529
:102C80002CF48A819B81009761F02AC02A813B81C4
:102C900022303105B1F08A819B8183309105C9F0E2
:102CA0001FC0ABE3B0E0EBE3F0E0808180958C9354
:102CB00017C0A8E3B0E0E8E3F0E0808180958C9352
:102CC0000FC0A5E3B0E0E5E3F0E0808180958C9350
:102CD00007C0A2E3B0E0E2E3F0E0808180958C934E
:102CE0000F900F900F90CF91DF910895DF93CF93C6
:102CF00000D000D00F92CDB7DEB789836A834B83B3
:102D000089818430E0F48A818830C8F48B81282F4F
:102D100030E03D832C838C819D81009759F02C817C
:102D20003D812130310559F489816A8141E00E9459
:102D30008A1305C089816A8140E00E948A130F903E
:102D40000F900F900F900F90CF91DF910895DF9328
:102D5000CF9300D000D0CDB7DEB789836A83898155
:102D60008430B8F48A81282F30E03C832B838B8118
:102D70009C81009751F02B813C812130310549F431
:102D8000898161E00E949A1404C0898160E00E94F8
:102D90009A140F900F900F900F90CF91DF9108959C
:102DA000DF93CF93CDB7DEB7A7E2B0E0E7E2F0E084
:102DB000808180648C93A7E2B0E0E7E2F0E080815C
:102DC0008F778C93A7E2B0E0E7E2F0E080818F7D1F
:102DD0008C93A6E2B0E0E6E2F0E0808180688C931C
:102DE000A6E2B0E0E6E2F0E080818F7D8C93A6E27F
:102DF000B0E0E6E2F0E08081877F8C93A6E2B0E06D
:102E0000E6E2F0E08081887F8C93A6E2B0E0E6E223
:102E1000F0E0808181608C93A6E2B0E0E6E2F0E031
:102E2000808182608C93A6E2B0E0E6E2F0E08081EF
:102E300084608C93CF91DF910895DF93CF9300D07E
:102E400000D0CDB7DEB78A83A7E2B0E0E7E2F0E0DA
:102E50008081807E8C938A81282F30E03C832B8375
:102E60008B819C818330910509F445C02B813C8185
:102E7000243031057CF48B819C818130910549F1AE
:102E80002B813C81223031056CF58B819C81009730
:102E9000C1F05DC02B813C812530310509F43DC076
:102EA0008B819C81853091057CF12B813C81263082
:102EB0003105E1F18B819C818730910509F43FC098
:102EC00046C0A7E2B0E0E7E2F0E08081807E8C932C
:102ED0003EC0A7E2B0E0E7E2F0E08081807E816062
:102EE0008C9335C0A7E2B0E0E7E2F0E08081807E1D
:102EF00082608C932CC0A7E2B0E0E7E2F0E0808132
:102F0000807E83608C9323C0A7E2B0E0E7E2F0E02C
:102F10008081807E84608C931AC0A7E2B0E0E7E2F3
:102F2000F0E08081807E85608C9311C0A7E2B0E0E4
:102F3000E7E2F0E08081807E86608C9308C0A7E2A3
:102F4000B0E0E7E2F0E08081807E87608C93A6E2CB
:102F5000B0E0E6E2F0E0808180648C93198205C0E5
:102F6000E6E2F0E080818071898389818823C1F362
:102F7000A6E2B0E0E6E2F0E0808180618C93E4E2DA
:102F8000F0E0808191810F900F900F900F90CF9182
:102F9000DF910895DF93CF93CDB7DEB727970FB6B4
:102FA000F894DEBF0FBECDBF89837B836A83809197
:102FB0005302882321F08A819B81009719F41F8294
:102FC0001E829FC010925302A7E2B0E0E7E2F0E059
:102FD0008081807E8C938981282F30E03D832C83F3
:102FE0008C819D818330910509F445C02C813D8100
:102FF000243031057CF48C819D818130910549F12B
:103000002C813D81223031056CF58C819D810097AA
:10301000C1F05DC02C813D812530310509F43DC0F2
:103020008C819D81853091057CF12C813D812630FC
:103030003105E1F18C819D818730910509F43FC014
:1030400046C0A7E2B0E0E7E2F0E08081807E8C93AA
:103050003EC0A7E2B0E0E7E2F0E08081807E8160E0
:103060008C9335C0A7E2B0E0E7E2F0E08081807E9B
:1030700082608C932CC0A7E2B0E0E7E2F0E08081B0
:10308000807E83608C9323C0A7E2B0E0E7E2F0E0AB
:103090008081807E84608C931AC0A7E2B0E0E7E272
:1030A000F0E08081807E85608C9311C0A7E2B0E063
:1030B000E7E2F0E08081807E86608C9308C0A7E222
:1030C000B0E0E7E2F0E08081807E87608C938A81C7
:1030D0009B819093500280934F02A6E2B0E0E6E21B
:1030E000F0E0808180648C93A6E2B0E0E6E2F0E05C
:1030F000808188608C9320915102309152023F83ED
:103100002E838E819F8127960FB6F894DEBF0FBE67
:10311000CDBFCF91DF9108951F920F920FB60F92FE
:1031200011242F933F934F935F936F937F938F93CC
:103130009F93AF93BF93EF93FF93DF93CF93CDB75D
:10314000DEB7E4E2F0E080819181909352028093B7
:10315000510281E080935302E0914F02F0915002BE
:103160000995A6E2B0E0E6E2F0E08081877F8C93EB
:10317000CF91DF91FF91EF91BF91AF919F918F918F
:103180007F916F915F914F913F912F910F900FBE63
:103190000F901F901895DF93CF93CDB7DEB782E0E5
:1031A00060E041E00E94F11182E061E041E00E94B4
:1031B000F11182E062E041E00E94F11182E063E0FF
:1031C00041E00E94F111CF91DF910895DF93CF93F9
:1031D000CDB7DEB7E8970FB6F894DEBF0FBECDBF10
:1031E00082E060E041E00E948A1382E061E040E01A
:1031F0000E948A1382E062E040E00E948A1382E02B
:1032000063E040E00E948A1380E090E0A8ECB2E422
:103210008DAB9EABAFABB8AF6DA97EA98FA998ADB2
:1032200020E030E04AEF54E40E941F02DC01CB01B1
:1032300089AB9AABABABBCAB69A97AA98BA99CA9AA
:1032400020E030E040E85FE30E94790388232CF41B
:1032500081E090E098AB8FA73FC069A97AA98BA9BC
:103260009CA920E03FEF4FE757E40E94190318168E
:103270004CF56DA97EA98FA998AD20E030E040E221
:1032800051E40E941F02DC01CB01BC01CD010E9470
:103290004900DC01CB0198AB8FA70FC088EC90E010
:1032A0009EA78DA78DA59EA50197F1F79EA78DA737
:1032B0008FA598A9019798AB8FA78FA598A900977C
:1032C00069F714C069A97AA98BA99CA90E94490031
:1032D000DC01CB0198AB8FA78FA598A99CA78BA7E2
:1032E0008BA59CA50197F1F79CA78BA782E060E0D6
:1032F00040E00E948A1382E061E041E00E948A136C
:1033000082E062E040E00E948A1382E063E040E0F5
:103310000E948A1380E090E0A8ECB2E48FA398A703
:10332000A9A7BAA76FA178A589A59AA520E030E042
:103330004AEF54E40E941F02DC01CB018BA39CA343
:10334000ADA3BEA36BA17CA18DA19EA120E030E026
:1033500040E85FE30E94790388232CF481E090E049
:103360009AA389A33FC06BA17CA18DA19EA120E05F
:103370003FEF4FE757E40E94190318164CF56FA171
:1033800078A589A59AA520E030E040E251E40E94AA
:103390001F02DC01CB01BC01CD010E944900DC0110
:1033A000CB019AA389A30FC088EC90E098A38F8FDC
:1033B0008F8D98A10197F1F798A38F8F89A19AA17A
:1033C00001979AA389A389A19AA1009769F714C0CC
:1033D0006BA17CA18DA19EA10E944900DC01CB01C3
:1033E0009AA389A389A19AA19E8F8D8F8D8D9E8D81
:1033F0000197F1F79E8F8D8F82E060E040E00E94A0
:103400008A1382E061E040E00E948A1382E062E079
:1034100041E00E948A1382E063E040E00E948A1348
:1034200080E090E0A8ECB2E4898F9A8FAB8FBC8FDC
:10343000698D7A8D8B8D9C8D20E030E04AEF54E4CD
:103440000E941F02DC01CB018D8B9E8BAF8BB88F4E
:103450006D897E898F89988D20E030E040E85FE3B8
:103460000E94790388232CF481E090E09C8B8B8B65
:103470003FC06D897E898F89988D20E03FEF4FE7AF
:1034800057E40E94190318164CF5698D7A8D8B8DBF
:103490009C8D20E030E040E251E40E941F02DC01FC
:1034A000CB01BC01CD010E944900DC01CB019C8B0A
:1034B0008B8B0FC088EC90E09A8B898B89899A89D5
:1034C0000197F1F79A8B898B8B899C8901979C8B4B
:1034D0008B8B8B899C89009769F714C06D897E89D5
:1034E0008F89988D0E944900DC01CB019C8B8B8BCE
:1034F0008B899C89988B8F878F8598890197F1F7A5
:10350000988B8F8782E060E040E00E948A1382E01F
:1035100061E040E00E948A1382E062E040E00E94A5
:103520008A1382E063E041E00E948A1380E090E029
:10353000A8ECB2E48B879C87AD87BE876B857C85C2
:103540008D859E8520E030E04AEF54E40E941F0202
:10355000DC01CB018F839887A987BA876F81788533
:1035600089859A8520E030E040E85FE30E94790396
:1035700088232CF481E090E09E838D833FC06F818F
:10358000788589859A8520E03FEF4FE757E40E94D0
:10359000190318164CF56B857C858D859E8520E07A
:1035A00030E040E251E40E941F02DC01CB01BC018B
:1035B000CD010E944900DC01CB019E838D830FC0A9
:1035C00088EC90E09C838B838B819C810197F1F741
:1035D0009C838B838D819E8101979E838D838D81BA
:1035E0009E81009769F714C06F81788589859A85D7
:1035F0000E944900DC01CB019E838D838D819E81D9
:103600009A83898389819A810197F1F79A838983C3
:10361000E8960FB6F894DEBF0FBECDBFCF91DF9115
:103620000895DF93CF93CDB7DEB7E8970FB6F89440
:10363000DEBF0FBECDBF82E060E040E00E948A1393
:1036400082E061E040E00E948A1382E062E040E0B4
:103650000E948A1382E063E041E00E948A1380E0C6
:1036600090E0A8ECB2E48DAB9EABAFABB8AF6DA968
:103670007EA98FA998AD20E030E04AEF54E40E9483
:103680001F02DC01CB0189AB9AABABABBCAB69A928
:103690007AA98BA99CA920E030E040E85FE30E9472
:1036A000790388232CF481E090E098AB8FA73FC08A
:1036B00069A97AA98BA99CA920E03FEF4FE757E4BD
:1036C0000E94190318164CF56DA97EA98FA998AD13
:1036D00020E030E040E251E40E941F02DC01CB0117
:1036E000BC01CD010E944900DC01CB0198AB8FA742
:1036F0000FC088EC90E09EA78DA78DA59EA5019791
:10370000F1F79EA78DA78FA598A9019798AB8FA7D2
:103710008FA598A9009769F714C069A97AA98BA900
:103720009CA90E944900DC01CB0198AB8FA78FA513
:1037300098A99CA78BA78BA59CA50197F1F79CA79F
:103740008BA782E060E040E00E948A1382E061E0A3
:1037500040E00E948A1382E062E041E00E948A1306
:1037600082E063E040E00E948A1380E090E0A8ECF1
:10377000B2E48FA398A7A9A7BAA76FA178A589A536
:103780009AA520E030E04AEF54E40E941F02DC01D9
:10379000CB018BA39CA3ADA3BEA36BA17CA18DA1E8
:1037A0009EA120E030E040E85FE30E947903882397
:1037B0002CF481E090E09AA389A33FC06BA17CA187
:1037C0008DA19EA120E03FEF4FE757E40E9419032F
:1037D00018164CF56FA178A589A59AA520E030E0D0
:1037E00040E251E40E941F02DC01CB01BC01CD018B
:1037F0000E944900DC01CB019AA389A30FC088EC89
:1038000090E098A38F8F8F8D98A10197F1F798A3DF
:103810008F8F89A19AA101979AA389A389A19AA1BF
:10382000009769F714C06BA17CA18DA19EA10E9495
:103830004900DC01CB019AA389A389A19AA19E8F9B
:103840008D8F8D8D9E8D0197F1F79E8F8D8F82E0EC
:1038500060E040E00E948A1382E061E041E00E9463
:103860008A1382E062E040E00E948A1382E063E013
:1038700040E00E948A1380E090E0A8ECB2E4898FD7
:103880009A8FAB8FBC8F698D7A8D8B8D9C8D20E04C
:1038900030E04AEF54E40E941F02DC01CB018D8B23
:1038A0009E8BAF8BB88F6D897E898F89988D20E034
:1038B00030E040E85FE30E94790388232CF481E044
:1038C00090E09C8B8B8B3FC06D897E898F89988D12
:1038D00020E03FEF4FE757E40E94190318164CF51C
:1038E000698D7A8D8B8D9C8D20E030E040E251E433
:1038F0000E941F02DC01CB01BC01CD010E944900E6
:10390000DC01CB019C8B8B8B0FC088EC90E09A8BF9
:10391000898B89899A890197F1F79A8B898B8B8991
:103920009C8901979C8B8B8B8B899C89009769F76D
:1039300014C06D897E898F89988D0E944900DC01B1
:10394000CB019C8B8B8B8B899C89988B8F878F85E8
:1039500098890197F1F7988B8F8782E060E041E0CA
:103960000E948A1382E061E040E00E948A1382E0B4
:1039700062E040E00E948A1382E063E040E00E943F
:103980008A1380E090E0A8ECB2E48B879C87AD8737
:10399000BE876B857C858D859E8520E030E04AEF73
:1039A00054E40E941F02DC01CB018F839887A98712
:1039B000BA876F81788589859A8520E030E040E874
:1039C0005FE30E94790388232CF481E090E09E83DA
:1039D0008D833FC06F81788589859A8520E03FEF90
:1039E0004FE757E40E94190318164CF56B857C8548
:1039F0008D859E8520E030E040E251E40E941F0268
:103A0000DC01CB01BC01CD010E944900DC01CB01EE
:103A10009E838D830FC088EC90E09C838B838B8189
:103A20009C810197F1F79C838B838D819E81019707
:103A30009E838D838D819E81009769F714C06F816D
:103A4000788589859A850E944900DC01CB019E8397
:103A50008D838D819E819A83898389819A81019743
:103A6000F1F79A838983E8960FB6F894DEBF0FBE0C
:103A7000CDBFCF91DF910895DF93CF9300D000D0D9
:103A800000D0CDB7DEB79E838D8383E065E041E053
:103A90000E94F1118D819E81CC01A0E0B0E028EE62
:103AA00033E040E050E0BC01CD010E94CD2BDC01B1
:103AB000CB0184599144AD4FBF4F24EB30E040E03F
:103AC00050E0BC01CD010E94EC2BDA01C9018983D1
:103AD0009A83AB83BC8389819A816FE17EE40E94E3
:103AE000A40726960FB6F894DEBF0FBECDBFCF91C8
:103AF000DF910895DF93CF9300D000D000D0CDB7F1
:103B0000DEB79E838D8383E064E041E00E94F11183
:103B10008D819E81CC01A0E0B0E028EE33E040E052
:103B200050E0BC01CD010E94CD2BDC01CB018459BA
:103B30009144AD4FBF4F24EB30E040E050E0BC017A
:103B4000CD010E94EC2BDA01C90189839A83AB83F2
:103B5000BC8389819A816FE17EE40E94BF0726962B
:103B60000FB6F894DEBF0FBECDBFCF91DF910895A1
:103B70000F931F93DF93CF93CDB7DEB7C654D040DA
:103B80000FB6F894DEBF0FBECDBF81E061E00E94AA
:103B9000011383E062E041E00E94F11183E063E001
:103BA00041E00E94F11183E064E041E00E94F111E4
:103BB000FE01ED5BFF4F80E090E0ACE0B2E480837B
:103BC0009183A283B3838E01015C1F4FFE01ED5BE5
:103BD000FF4F608171818281938120E030E04AEF64
:103BE00054E40E941F02DC01CB01F8018083918321
:103BF000A283B383FE01FF966081718182819381EC
:103C000020E030E040E85FE30E94790388232CF451
:103C100081E090E09EAF8DAF46C0FE01FF966081CF
:103C200071818281938120E03FEF4FE757E40E944A
:103C30001903181664F5FE01ED5BFF4F6081718179
:103C40008281938120E030E040E251E40E941F0233
:103C5000DC01CB01BC01CD010E944900DC01CB019C
:103C60009EAF8DAF0FC088EC90E09CAF8BAF8BAD5B
:103C70009CAD0197F1F79CAF8BAF8DAD9EAD0197D9
:103C80009EAF8DAF8DAD9EAD009769F716C0FE015A
:103C9000FF9660817181828193810E944900DC01DD
:103CA000CB019EAF8DAF8DAD9EAD9AAF89AF89AD83
:103CB0009AAD0197F1F79AAF89AF88E30E943D2052
:103CC00080E090E0A0E8BFE38DAB9EABAFABB8AFB8
:103CD0006DA97EA98FA998AD20E030E04AEF54E4A9
:103CE0000E941F02DC01CB0189AB9AABABABBCAB32
:103CF00069A97AA98BA99CA920E030E040E85FE39C
:103D00000E94790388232CF481E090E098AB8FA780
:103D10003FC069A97AA98BA99CA920E03FEF4FE792
:103D200057E40E94190318164CF56DA97EA98FA9B6
:103D300098AD20E030E040E251E40E941F02DC0137
:103D4000CB01BC01CD010E944900DC01CB0198AB45
:103D50008FA70FC088EC90E09EA78DA78DA59EA58C
:103D60000197F1F79EA78DA78FA598A9019798AB0A
:103D70008FA78FA598A9009769F714C069A97AA998
:103D80008BA99CA90E944900DC01CB0198AB8FA7AD
:103D90008FA598A99CA78BA78BA59CA50197F1F748
:103DA0009CA78BA78CE00E943D2080E090E0A0E8DB
:103DB000BFE38FA398A7A9A7BAA76FA178A589A5E4
:103DC0009AA520E030E04AEF54E40E941F02DC0193
:103DD000CB018BA39CA3ADA3BEA36BA17CA18DA1A2
:103DE0009EA120E030E040E85FE30E947903882351
:103DF0002CF481E090E09AA389A33FC06BA17CA141
:103E00008DA19EA120E03FEF4FE757E40E941903E8
:103E100018164CF56FA178A589A59AA520E030E089
:103E200040E251E40E941F02DC01CB01BC01CD0144
:103E30000E944900DC01CB019AA389A30FC088EC42
:103E400090E098A38F8F8F8D98A10197F1F798A399
:103E50008F8F89A19AA101979AA389A389A19AA179
:103E6000009769F714C06BA17CA18DA19EA10E944F
:103E70004900DC01CB019AA389A389A19AA19E8F55
:103E80008D8F8D8D9E8D0197F1F79E8F8D8F81E0A7
:103E90000E943D2080E090E0A0E0B0E4898F9A8FFE
:103EA000AB8FBC8F698D7A8D8B8D9C8D20E030E03F
:103EB0004AEF54E40E941F02DC01CB018D8B9E8BE4
:103EC000AF8BB88F6D897E898F89988D20E030E027
:103ED00040E85FE30E94790388232CF481E090E0BE
:103EE0009C8B8B8B3FC06D897E898F89988D20E05C
:103EF0003FEF4FE757E40E94190318164CF5698D00
:103F00007A8D8B8D9C8D20E030E040E251E40E9460
:103F10001F02DC01CB01BC01CD010E944900DC0184
:103F2000CB019C8B8B8B0FC088EC90E09A8B898B9C
:103F300089899A890197F1F79A8B898B8B899C895A
:103F400001979C8B8B8B8B899C89009769F714C098
:103F50006D897E898F89988D0E944900DC01CB0193
:103F60009C8B8B8B8B899C89988B8F878F8598896D
:103F70000197F1F7988B8F8786E00E943D2080E0C3
:103F800090E0A0E8BFE38B879C87AD87BE876B85F9
:103F90007C858D859E8520E030E04AEF54E40E94C8
:103FA0001F02DC01CB018F839887A987BA876F81B5
:103FB000788589859A8520E030E040E85FE30E94BB
:103FC000790388232CF481E090E09E838D833FC0A9
:103FD0006F81788589859A8520E03FEF4FE757E428
:103FE0000E94190318164CF56B857C858D859E857E
:103FF00020E030E040E251E40E941F02DC01CB01EE
:10400000BC01CD010E944900DC01CB019E838D8360
:104010000FC088EC90E09C838B838B819C810197FF
:10402000F1F79C838B838D819E8101979E838D8385
:104030008D819E81009769F714C06F81788589858D
:104040009A850E944900DC01CB019E838D838D817E
:104050009E819A83898389819A810197F1F79A8356
:104060008983CA5BDF4F0FB6F894DEBF0FBECDBFAA
:10407000CF91DF911F910F910895DF93CF930F920E
:10408000CDB7DEB7898383E062E040E00E948A1307
:1040900083E063E040E00E948A1381E069810E942E
:1040A0009A1483E064E041E00E948A1383E064E0B4
:1040B00040E00E948A130F90CF91DF910895DF9323
:1040C000CF930F92CDB7DEB7898383E062E041E002
:1040D0000E948A1383E063E040E00E948A1381E03B
:1040E00069810E949A1483E064E041E00E948A138F
:1040F00083E064E040E00E948A130F90CF91DF914B
:104100000895DF93CF9300D00F92CDB7DEB79B8396
:104110008A8319820EC08981282F30E08A819B8191
:10412000FC01E20FF31F80810E945F2089818F5F75
:1041300089838981282F30E08A819B81FC01E20FED
:10414000F31F8081882339F70F900F900F90CF9144
:10415000DF9108950F931F93DF93CF93CDB7DEB711
:104160006B970FB6F894DEBF0FBECDBF688F798F07
:104170008A8F9B8F1B822DC08B81082F10E0888D2A
:10418000998DAA8DBB8D2AE030E040E050E0BC0163
:10419000CD010E94EC2BDC01CB01282FCE0104962F
:1041A000FC01E00FF11F2083888D998DAA8DBB8DB6
:1041B0002AE030E040E050E0BC01CD010E94EC2B51
:1041C000DA01C901888F998FAA8FBB8F8B818F5F8E
:1041D0008B83888D998DAA8DBB8D0097A105B10524
:1041E00059F68B8181508B838B81882F90E09A8345
:1041F000898310C029813A81CE010496FC01E20F27
:10420000F31F8081805D0E945F2089819A810197E0
:104210009A83898389819A81992364F76B960FB673
:10422000F894DEBF0FBECDBFCF91DF911F910F91EC
:104230000895DF93CF9300D000D0CDB7DEB7898348
:104240006A8389818230D8F48A818031C0F489817F
:10425000282F30E03C832B838B819C81009731F0A9
:104260002B813C812130310531F009C08A81805891
:104270000E943D2004C08A8180540E943D200F90FE
:104280000F900F900F90CF91DF910895DF93CF9310
:1042900000D000D0CDB7DEB78A837C836B838A8160
:1042A0000E943D2019820EC08981282F30E08B8129
:1042B0009C81FC01E20FF31F80810E945F208981B5
:1042C0008F5F89838981883078F30F900F900F90EA
:1042D0000F90CF91DF910895DF93CF9300D00F928D
:1042E000CDB7DEB789836A834B838A816B810E9455
:1042F000192189810E945F200F900F900F90CF911C
:10430000DF910895DF93CF93CDB7DEB781E00E94B0
:104310003D20CF91DF910895DF93CF93CDB7DEB7E6
:1043200087E00E943D20CF91DF910895DF93CF93E6
:10433000CDB7DEB785E00E943D20CF91DF91089593
:10434000DF93CF9300D0CDB7DEB789836A838981AD
:104350006A810E94192180E20E945F200F900F90D5
:10436000CF91DF910895DF93CF9300D0CDB7DEB723
:104370008A8319820AC08A8169810E94192180E298
:104380000E945F2089818F5F89838981803198F3C2
:104390000F900F90CF91DF910895DF93CF93CDB71A
:1043A000DEB780E064E041E00E94F11180E065E06A
:1043B00041E00E94F11180E066E041E00E94F111CD
:1043C00080E067E041E00E94F11180E060E040E0C1
:1043D0000E94F11180E061E040E00E94F11180E074
:1043E00062E040E00E94F11180E063E040E00E9462
:1043F000F11180E060E041E00E94761680E061E02B
:1044000041E00E94761680E062E041E00E9476166C
:1044100080E063E041E00E94761680E064E041E0E5
:104420000E948A1380E065E041E00E948A1380E0E8
:1044300066E041E00E948A1380E067E041E00E946C
:104440008A13CF91DF910895DF93CF9300D000D0EE
:104450000F92CDB7DEB78FEF8A8319821D826DC0B0
:104460008D81882F90E0FC01ED5FFD4F908180E011
:10447000692F40E00E948A131C8249C08C81882FDA
:1044800090E0FC01E95FFD4F908180E0692F0E9480
:10449000DE148B838B818823B9F520C08C81482F53
:1044A00050E08D81282F30E0CA01880F991F880FB6
:1044B000991F820F931FFC01E55FFD4F80818A8366
:1044C0008C81882F90E0FC01E95FFD4F908180E0B6
:1044D000692F0E94DE148B8381E089838B8188237E
:1044E000E9F28C81482F50E08D81282F30E0CA01FD
:1044F000880F991F880F991F820F931FFC01E55F9A
:10450000FD4F80818A8307C08C818F5F8C838C8173
:10451000843008F4B3CF8D81882F90E0FC01ED5FEB
:10452000FD4F908180E0692F41E00E948A138981CC
:10453000813039F08D818F5F8D838D81843008F4D7
:104540008FCF8A810F900F900F900F900F90CF9187
:10455000DF910895DF93CF93CDB7DEB762970FB6A3
:10456000F894DEBF0FBECDBF998B888B6A8B88898C
:104570009989892F992780658F870E948D0C8F8557
:104580000E94E10C88890E94C50D8A890E94C50D90
:104590000E94770E80E090E0A0E2B1E48B879C87D8
:1045A000AD87BE876B857C858D859E8520E030E05C
:1045B0004AEF54E40E941F02DC01CB018F839887ED
:1045C000A987BA876F81788589859A8520E030E050
:1045D00040E85FE30E94790388232CF481E090E0B7
:1045E0009E838D833FC06F81788589859A8520E081
:1045F0003FEF4FE757E40E94190318164CF56B85FF
:104600007C858D859E8520E030E040E251E40E946B
:104610001F02DC01CB01BC01CD010E944900DC017D
:10462000CB019E838D830FC088EC90E09C838B83AD
:104630008B819C810197F1F79C838B838D819E8177
:1046400001979E838D838D819E81009769F714C0A9
:104650006F81788589859A850E944900DC01CB01AC
:104660009E838D838D819E819A83898389819A819E
:104670000197F1F79A83898362960FB6F894DEBFAB
:104680000FBECDBFCF91DF910895DF93CF93CDB70C
:10469000DEB762970FB6F894DEBF0FBECDBF9A8B20
:1046A000898B89899A89892F992780658F870E94AC
:1046B0008D0C8F850E94E10C89890E94C50D0E9496
:1046C000B70C8F850E94530DCE0140960E94470E75
:1046D0000E94770E80E090E0A0E2B1E48B879C8797
:1046E000AD87BE876B857C858D859E8520E030E01B
:1046F0004AEF54E40E941F02DC01CB018F839887AC
:10470000A987BA876F81788589859A8520E030E00E
:1047100040E85FE30E94790388232CF481E090E075
:104720009E838D833FC06F81788589859A8520E03F
:104730003FEF4FE757E40E94190318164CF56B85BD
:104740007C858D859E8520E030E040E251E40E942A
:104750001F02DC01CB01BC01CD010E944900DC013C
:10476000CB019E838D830FC088EC90E09C838B836C
:104770008B819C810197F1F79C838B838D819E8136
:1047800001979E838D838D819E81009769F714C068
:104790006F81788589859A850E944900DC01CB016B
:1047A0009E838D838D819E819A83898389819A815D
:1047B0000197F1F79A838983888962960FB6F894F6
:1047C000DEBF0FBECDBFCF91DF910895DF93CF93B2
:1047D000CDB7DEB782E060E041E00E94F11182E0F7
:1047E00061E041E00E94F111CF91DF910895DF93E4
:1047F000CF93CDB7DEB782E060E041E00E948A133C
:1048000082E061E040E00E948A13CF91DF91089539
:10481000DF93CF93CDB7DEB782E060E040E00E9447
:104820008A1382E061E041E00E948A13CF91DF9118
:104830000895DF93CF93CDB7DEB782E060E040E02C
:104840000E948A1382E061E040E00E948A13CF91C7
:10485000DF910895DF93CF93CDB7DEB780E060E0BE
:1048600041E00E94F111CF91DF910895DF93CF9342
:10487000CDB7DEB780E060E041E00E948A13CF91BF
:10488000DF910895DF93CF93CDB7DEB780E060E08E
:1048900040E00E948A13CF91DF910895DF93CF9378
:1048A000CDB7DEB780E060E00E94A215CF91DF9126
:1048B0000895DF93CF9300D00F92CDB7DEB78983F1
:1048C0008981282F30E03B832A838A819B81813034
:1048D0009105D1F02A813B81223031052CF48A8167
:1048E0009B81009761F01EC02A813B8122303105F7
:1048F00081F08A819B818330910581F013C080E033
:1049000061E00E9401130EC081E061E00E9401138A
:1049100009C082E061E00E94011304C083E061E00D
:104920000E9401130F900F900F90CF91DF91089587
:10493000DF93CF93CDB7DEB729970FB6F894DEBFDC
:104940000FBECDBF89836A834B838A81282F30E0D5
:104950003987288788859985009739F02885398592
:104960002130310509F450C0A5C08981282F30E0DD
:104970003F832E838E819F818130910509F12E81A5
:104980003F81223031052CF48E819F81009761F0A8
:1049900091C02E813F8122303105F1F08E819F81BF
:1049A0008330910529F186C08B81882F90E0FC012E
:1049B000E55EFD4F908180E0692F0E949A147AC0D5
:1049C0008B81882F90E0FC01E55EFD4F908181E0B6
:1049D000692F0E949A146EC08B81882F90E0FC0191
:1049E000E55EFD4F908182E0692F0E949A1462C0BB
:1049F0008B81882F90E0FC01E55EFD4F908183E084
:104A0000692F0E949A1456C08981282F30E03D8377
:104A10002C838C819D818130910519F12C813D8100
:104A2000223031052CF48C819D81009761F042C0C9
:104A30002C813D812230310511F18C819D818330A3
:104A4000910559F137C08B81882F90E0FC01E55E1C
:104A5000FD4F8081982F909580E0692F0E949A14D5
:104A600029C08B81882F90E0FC01E55EFD4F80819D
:104A7000982F909581E0692F0E949A141BC08B811A
:104A8000882F90E0FC01E55EFD4F8081982F909586
:104A900082E0692F0E949A140DC08B81882F90E0CC
:104AA000FC01E55EFD4F8081982F909583E0692F92
:104AB0000E949A1429960FB6F894DEBF0FBECDBFA0
:104AC000CF91DF910895DF93CF93CDB7DEB76F9786
:104AD0000FB6F894DEBF0FBECDBF0E94B81D0E9476
:104AE000CD210E94A3050E94D0160E94E90680E015
:104AF0000E94600C81E090E06BE70E94AA2282E0B5
:104B000063E041E00E94F1111F8E1E8E81E090E073
:104B10000E944523809354020E94432780E00E9414
:104B2000B32181E00E94B32180E060E00E9419215E
:104B300080E690E00E94812081E06DE00E941921D2
:104B400081E790E00E9481201D8E98C10E9462281A
:104B50009F8F8E8F80915402282F30E08E8D9F8DF5
:104B60002817390709F03DC18AE50E940B0680E04D
:104B70000E94B32181E00E94B32182E063E041E022
:104B80000E948A130E94B72B80E090E0AAE7B3E46A
:104B9000898F9A8FAB8FBC8F698D7A8D8B8D9C8D11
:104BA00020E030E04AEF54E40E941F02DC01CB0118
:104BB0008D8B9E8BAF8BB88F6D897E898F89988DF9
:104BC00020E030E040E85FE30E94790388232CF482
:104BD00081E090E09C8B8B8B3FC06D897E898F89B3
:104BE000988D20E03FEF4FE757E40E941903181615
:104BF0004CF5698D7A8D8B8D9C8D20E030E040E204
:104C000051E40E941F02DC01CB01BC01CD010E94D6
:104C10004900DC01CB019C8B8B8B0FC088EC90E0B2
:104C20009A8B898B89899A890197F1F79A8B898B5D
:104C30008B899C8901979C8B8B8B8B899C89009796
:104C400069F714C06D897E898F89988D0E9449000B
:104C5000DC01CB019C8B8B8B8B899C89988B8F87FC
:104C60008F8598890197F1F7988B8F8782E063E0B1
:104C700040E00E948A1380E061E00E94192185E7EC
:104C800090E00E94812081E063E00E94192184E885
:104C900090E00E94812080E090E0A6E9B3E48B8759
:104CA0009C87AD87BE876B857C858D859E8520E042
:104CB00030E04AEF54E40E941F02DC01CB018F83F5
:104CC0009887A987BA876F81788589859A8520E03A
:104CD00030E040E85FE30E94790388232CF481E010
:104CE00090E09E838D833FC06F81788589859A850A
:104CF00020E03FEF4FE757E40E94190318164CF5E8
:104D00006B857C858D859E8520E030E040E251E416
:104D10000E941F02DC01CB01BC01CD010E944900B1
:104D2000DC01CB019E838D830FC088EC90E09C83D7
:104D30008B838B819C810197F1F79C838B838D8181
:104D40009E8101979E838D838D819E81009769F757
:104D500014C06F81788589859A850E944900DC019D
:104D6000CB019E838D838D819E819A8389838981E6
:104D70009A810197F1F79A83898380E060E00E942D
:104D800019218EE890E00E94812081E060E00E947D
:104D900019218EE990E00E9481200E9424228093B4
:104DA0005502809155028F3F41F380915502813326
:104DB00019F40E94A628E1CF80915502823319F49C
:104DC0000E94E228DACF80915502833319F40E94C1
:104DD0008129D3CF80915502843379F60E941E2910
:104DE000CCCF8D8D823009F580E00E94B32181E027
:104DF0000E94B32180E063E00E9419218FEA90E0D5
:104E00000E94812081E060E00E94192189EB90E0FE
:104E10000E9481208EE40E940B0682E063E041E064
:104E20000E948A130E94C22B8FCE80E00E94B32181
:104E300081E00E94B32180E060E00E9419218AECA9
:104E400090E00E94812081E06DE00E94192188EDB0
:104E500090E00E9481208D8D882F90E00296AA27F5
:104E600097FDA095BA2FBC01CD010E94AA208AED22
:104E700090E00E9481208D8D8F5F8D8F8D8D83308E
:104E800008F464CE61CEDF93CF93CDB7DEB76C97D5
:104E90000FB6F894DEBF0FBECDBF0E94822180E026
:104EA00061E00E9419218CED90E00E94812081E058
:104EB00060E00E9419218CEE90E00E94812080E049
:104EC00090E0A6E9B3E4898F9A8FAB8FBC8F698D90
:104ED0007A8D8B8D9C8D20E030E04AEF54E40E9467
:104EE0001F02DC01CB018D8B9E8BAF8BB88F6D8940
:104EF0007E898F89988D20E030E040E85FE30E9452
:104F0000790388232CF481E090E09C8B8B8B3FC04D
:104F10006D897E898F89988D20E03FEF4FE757E4B8
:104F20000E94190318164CF5698D7A8D8B8D9C8D16
:104F300020E030E040E251E40E941F02DC01CB019E
:104F4000BC01CD010E944900DC01CB019C8B8B8B05
:104F50000FC088EC90E09A8B898B89899A89019798
:104F6000F1F79A8B898B8B899C8901979C8B8B8B12
:104F70008B899C89009769F714C06D897E898F8918
:104F8000988D0E944900DC01CB019C8B8B8B8B8917
:104F90009C89988B8F878F8598890197F1F7988BDB
:104FA0008F8780E00E94B32181E00E94B32180E0DE
:104FB00061E00E94192189EF90E00E94812081E048
:104FC00060E00E9419218AE091E00E94812080E047
:104FD00090E0A6E9B3E48B879C87AD87BE876B859D
:104FE0007C858D859E8520E030E04AEF54E40E9468
:104FF0001F02DC01CB018F839887A987BA876F8155
:10500000788589859A8520E030E040E85FE30E945A
:10501000790388232CF481E090E09E838D833FC048
:105020006F81788589859A8520E03FEF4FE757E4C7
:105030000E94190318164CF56B857C858D859E851D
:1050400020E030E040E251E40E941F02DC01CB018D
:10505000BC01CD010E944900DC01CB019E838D8300
:105060000FC088EC90E09C838B838B819C8101979F
:10507000F1F79C838B838D819E8101979E838D8325
:105080008D819E81009769F714C06F81788589852D
:105090009A850E944900DC01CB019E838D838D811E
:1050A0009E819A83898389819A810197F1F79A83F6
:1050B00089836C960FB6F894DEBF0FBECDBFCF913B
:1050C000DF910895DF93CF9300D000D00F92CDB73A
:1050D000DEB781E060E00E9419211D821C821B82E4
:1050E0001A820E942422898389818F3FD1F389818A
:1050F0008033F8F089818A33E0F48AE20E945F20ED
:105100008A819B819C01220F331FC901880F991F3F
:10511000880F991F280F391F8981882F90E0820FEF
:10512000931FC0979B838A838A819B819D838C83F5
:10513000D8CF89818D33A9F68C819D810F900F90F6
:105140000F900F900F90CF91DF910895DF93CF9341
:105150000F92CDB7DEB7198281E30E940B0680E083
:105160000E94B32181E00E94B32180E060E00E94B0
:1051700019218DE191E00E94812081E060E00E9490
:1051800019218DE291E00E9481200E9424228983CE
:1051900089818F3F51F38981813321F481E00E941D
:1051A000772AE3CF8981823321F481E00E94402B6A
:1051B000DCCF83E20E940B06109255020F90CF9134
:1051C000DF910895DF93CF930F92CDB7DEB71982A9
:1051D00082E30E940B0680E00E94B32181E00E94DE
:1051E000B32180E060E00E9419218DE191E00E94EE
:1051F000812081E060E00E9419218DE291E00E940F
:1052000081200E942422898389818F3F51F38981E3
:10521000813321F482E00E94772AE3CF89818233AF
:1052200021F482E00E94402BDCCF83E20E940B0637
:10523000109255020F90CF91DF910895DF93CF9395
:105240000F92CDB7DEB7198280E060E00E9419218D
:105250008DE391E00E94812081E060E00E941921AD
:1052600080E591E00E9481200E9424228983898127
:105270008F3F51F38981843319F40E944629E4CF8A
:105280008981853309F70E94BC29DECFDF93CF9354
:105290000F92CDB7DEB7198284E30E940B0680E03F
:1052A0000E94B32181E00E94B32180E060E00E946F
:1052B00019218DE191E00E94812081E060E00E944F
:1052C000192181E691E00E9481200E942422898395
:1052D00089818F3F51F38981813321F483E00E94DA
:1052E000772AE3CF8981823319F40E94F329DDCF35
:1052F00083E20E940B06109255020F90CF91DF912E
:105300000895DF93CF930F92CDB7DEB7198283E371
:105310000E940B0680E00E94B32181E00E94B3212D
:1053200080E060E00E9419218DE191E00E948120DF
:1053300081E060E00E94192181E791E00E948120D4
:105340000E942422898389818F3F51F3898181338F
:1053500021F484E00E94772AE3CF8981823319F413
:105360000E94352ADDCF83E20E940B06109255027F
:105370000F90CF91DF910895DF93CF930F92CDB728
:10538000DEB7198285E30E940B0680E00E94B321FC
:1053900081E00E94B32180E060E00E94192182E850
:1053A00091E00E94812081E060E00E9419218CE858
:1053B00091E00E9481200E942422898389818F3F6D
:1053C000D1F389818332B9F783E20E940B0680E032
:1053D0000E94B32181E00E94B321109255020F90E8
:1053E000CF91DF910895DF93CF930F92CDB7DEB7C2
:1053F000198284E50E940B0680E00E94B32181E0BF
:105400000E94B32180E060E00E94192187E991E0C9
:105410000E94812081E060E00E94192182EA91E0EF
:105420000E9481200E942422898389818F3FD1F3A9
:105430008981813351F481E30E940B0680E00E9450
:10544000B32181E00E94B3210CC08981803351F7E0
:1054500080E30E940B0680E00E94B32181E00E945D
:10546000B3210F90CF91DF910895DF93CF930F92E7
:10547000CDB7DEB719828FE40E940B0680E00E9450
:10548000B32181E00E94B32180E060E00E941921F5
:105490008DEA91E00E94812081E060E00E94192164
:1054A0008AEB91E00E9481200E94242289838981D5
:1054B0008F3FD1F38981813351F481E30E940B0640
:1054C00080E00E94B32181E00E94B3210CC0898159
:1054D000803351F780E30E940B0680E00E94B321E5
:1054E00081E00E94B3210F90CF91DF910895DF9367
:1054F000CF9300D000D0CDB7DEB78A8319828CE479
:105500000E940B0680E00E94B32181E00E94B3213B
:1055100080E060E00E94192187EC91E00E948120E8
:1055200081E060E00E94192185ED91E00E948120D8
:105530008A81282F30E03C832B838B819C818230B1
:105540009105C1F12B813C812330310534F48B81ED
:105550009C818130910571F08CC02B813C8123307E
:10556000310509F447C08B819C818430910509F491
:1055700061C07FC00E942422898389818F3FD1F33B
:105580008981813351F481E30E940B0680E00E94FF
:10559000B32181E00E94B3216CC08981803351F72F
:1055A00080E30E940B0680E00E94B32181E00E940C
:1055B000B3215FC00E942422898389818F3FD1F368
:1055C0008981813351F481E30E940B0680E00E94BF
:1055D000B32181E00E94B3214CC08981803351F70F
:1055E00080E30E940B0680E00E94B32181E00E94CC
:1055F000B3213FC00E942422898389818F3FD1F348
:105600008981813351F481E30E940B0680E00E947E
:10561000B32181E00E94B3212CC08981803351F7EE
:1056200080E30E940B0680E00E94B32181E00E948B
:10563000B3211FC00E942422898389818F3FD1F327
:105640008981813351F481E30E940B0680E00E943E
:10565000B32181E00E94B3210CC08981803351F7CE
:1056600080E30E940B0680E00E94B32181E00E944B
:10567000B3210F900F900F900F90CF91DF9108956D
:10568000DF93CF9300D000D0CDB7DEB78A831982E5
:1056900086E40E940B0680E00E94B32181E00E9414
:1056A000B32180E060E00E94192183EE91E00E9426
:1056B000812081E060E00E9419218FEE91E00E943C
:1056C00081208A81282F30E03C832B838B819C8131
:1056D0008130910531F02B813C812230310509F177
:1056E0003FC00E942422898389818F3FD1F3898121
:1056F000813351F481E30E940B0680E00E94B321C4
:1057000081E00E94B3212CC08981803351F780E36E
:105710000E940B0680E00E94B32181E00E94B32129
:105720001FC00E942422898389818F3FD1F3898100
:10573000813351F481E30E940B0680E00E94B32183
:1057400081E00E94B3210CC08981803351F780E34E
:105750000E940B0680E00E94B32181E00E94B321E9
:105760000F900F900F900F90CF91DF910895DF93DE
:10577000CF93CDB7DEB78AE590E00E943C1DCF9174
:10578000DF910895DF93CF93CDB7DEB780E090E04F
:105790000E943C1DCF91DF910895629FD001739FBD
:1057A000F001829FE00DF11D649FE00DF11D929FBD
:1057B000F00D839FF00D749FF00D659FF00D9927FC
:1057C000729FB00DE11DF91F639FB00DE11DF91F20
:1057D000BD01CF0111240895A1E21A2EAA1BBB1B03
:1057E000FD010DC0AA1FBB1FEE1FFF1FA217B307AD
:1057F000E407F50720F0A21BB30BE40BF50B661FC3
:10580000771F881F991F1A9469F760957095809586
:1058100090959B01AC01BD01CF0108952F923F925D
:105820004F925F926F927F928F929F92AF92BF92B0
:10583000CF92DF92EF92FF920F931F93CF93DF935C
:10584000CDB7DEB7CA1BDB0B0FB6F894DEBF0FBEB9
:10585000CDBF09942A88398848885F846E847D8406
:105860008C849B84AA84B984C884DF80EE80FD8008
:105870000C811B81AA81B981CE0FD11D0FB6F8947E
:0E588000DEBF0FBECDBFED010895F894FFCF3F
:10588E0020456E7465722050617373776F72643A3F
:10589E00005B315D00446F6F72206973204F50655D
:1058AE006E65640057656C636F6D652E2E00312D2D
:1058BE00524F4F4D3120322D524F4F4D3200332D1E
:1058CE004B69746368656E20342D4D6F72650037B9
:1058DE006172616D79202121005265737461727459
:1058EE002053797374656D2E2E0054727920616782
:1058FE0061696E2E2E2E2E005B005D0020495449EC
:10590E002047726164756174696F6E0020202020DB
:10591E0050726F6A65637420002048656C6C6F204E
:10592E0057656C636F6D65202000546F204D5920B4
:10593E00536D61727420486F6D65202000283129E7
:10594E004C696768742020202020202000283229EE
:10595E0046616E20202020202020202000342D5251
:10596E006563657074696F6E2020202020202000F2
:10597E00352D4175746F20202020202020202020DE
:10598E00002832295456202020202020202020209C
:10599E00002832294F76656E2020202020202020DE
:1059AE0020002020486F6D652069730020417574BA
:1059BE006F204D6F64650028312954563A204F4EA2
:1059CE00200028302954563A204F464600283129C7
:1059DE004F76656E3A204F4E20002830294F76655F
:1059EE006E3A204F4646002831294C696768743A52
:1059FE00204F4E20002830294C696768743A204F9A
:105A0E0046460028312946616E3A204F4E20002826
:105A1E00302946616E3A204F4646000000000000D5
:105A2E0000000004050607000102033738392F3441
:105A3E0035362A3132332D23303D2BC0F9A4B0999F
:065A4E009282F880900135
:00000001FF
